:020000040800F2
:1000000098D40020839400089592000897920008E5
:10001000999200089B9200089D9200080000000041
:100020000000000000000000000000009F92000897
:10003000A192000800000000A3920008A592000809
:10004000B3940008B7940008BB940008BF9400085C
:10005000C3940008C7940008CB940008CF9400080C
:10006000D3940008D7940008DB940008DF940008BC
:10007000E3940008E7940008EB940008EF9400086C
:10008000F3940008F7940008FB940008FF9400081C
:1000900003950008079500080B9500080F950008C8
:1000A00013950008179500081B9500081F95000878
:1000B000AD920008279500082B9500082F950008A1
:1000C00033950008379500083B9500083F950008D8
:1000D00043950008479500084B9500084F95000888
:1000E00053950008579500085B9500080000000034
:1000F0000000000000000000000000000000000000
:1001000000000000000000005F95000863950008F3
:10011000C99200086B9500086F9500087395000858
:10012000779500087B9500087F9500088395000867
:1001300059930008A59300088F950008939500082F
:10014000979500089B9500089F950008A3950008C7
:10015000DFF8A806016899B94FF4803181604FF447
:10016000805141604FF0FF31C16001610421416164
:10017000DFF88C160422C1F8B821DFF88816016078
:100180000120704701F1080313F0070308BF0023A3
:1001900007D001F1080303F00703C3F1080303F0DC
:1001A00007035918D21A8161C26042F001034B6003
:1001B000511828224A60DFF844160969C161704766
:1001C0002DE9F04101F1080414F0070408BF0024F0
:1001D00007D001F1080404F00704C4F1080404F096
:1001E0000704611802F1080414F0070408BF002492
:1001F00007D002F1080404F00704C4F1080404F075
:100200000704A5185A186C1AE41A43F003034B604C
:10021000AA4201D301F012B96E68F307FAD5102C87
:10022000F8D383699D4207D1C368E318C360826134
:1002300043F00100506042E143699D4208D1836868
:10024000E3188360426143F0010050609B5036E147
:1002500006F00303012B40F0A080F308DB004FEA17
:10026000D30EBEF1200F26D2AF68D5F80CC065457D
:10027000D0D0BD42CED0674506D10668012707FA27
:100280000EF7BE43066086E04FEA4E0600EB860698
:1002900006F1280E774503D0D0F810E07745B9D3A2
:1002A0002836B44502D00669B445B3D3C7F80CC0AC
:1002B000CCF808706FE0AF69EE68AE420AD0D5F8AE
:1002C00008C0D0F810E0F445A4D3CCF80C60C6F810
:1002D00008C024E005F2140CDCF8006046B905F112
:1002E000100CDCF80060D6B102E0F446DCF80060E7
:1002F00006F2140EDEF80080B8F1000FF5D106F119
:10030000100EDEF80080B8F1000FEED1D0F810E04A
:10031000F445FFF47FAF4FF0000ECCF800E0002F63
:1003200039D0D5F81CC000EB8C0C0CF2301CDCF87A
:1003300000E075450BD1CCF800609EB946680127F6
:10034000D5F81CC007FA0CF7BE43466023E0D0F88E
:1003500010C06745FFF45EAFD7F810C0AC450CBFC6
:100360003E617E61BEB1D0F810C06645FFF452AF69
:10037000B7612F6937B1D0F810C06745FFF44AAFB5
:100380003761BE616F6937B1D0F810C06745FFF4BF
:1003900041AF7761BE615D191C196B685B085B003A
:1003A0006B6044F001035360A450E308202B1BD280
:1003B0005D0000EB850505F228052E46102CFFF4A4
:1003C00029AF012707FA03F304681C4204BF234343
:1003D000036004D0AE6800698642FFF41BAFAA60D8
:1003E000F2609660D5606AE0230A08BF002523D03A
:1003F000B3F5803F28BF1F251ED2A3F580752D0CB5
:1004000005F00805AB40A3F58056360C06F004064F
:10041000B340A3F580473F0C07F00207C5F10E0576
:10042000AD1BED1BBB4005EBD333DD1D24FA05F5F9
:1004300005F0010505EB430500EB850303F23013DE
:10044000D561002656611661012707FA05F647684F
:10045000374207D146EA070444601A609361D260CC
:1004600092602CE01B681F2D0EBF00256D08C5F1A2
:10047000190504FA05F500E033465E68F608F60053
:10048000A6420ED0EE0F03EB860606F110076D00B4
:100490003E68002EF0D100698742FFF4BBAE3A609F
:1004A000DCE79C6800698342FFF4B4AE8442FFF449
:1004B000B1AEE2609A609460D3600020906101F177
:1004C0000800BDE8F0812DE9FE4F0446A56904F25D
:1004D000BC102E4601688E4203D3426851188E42EA
:1004E00002D380680028F5D14168006801EB00085C
:1004F000A8F12F0000F1080111F0070108BF002149
:1005000007D000F1080101F00701C1F1080101F075
:10051000070101EB000A05F11000824538BFAA4629
:100520000AF1080B0AF1180900270198A0F1280226
:1005300000992046FFF726FE1BF0070022D11B2062
:10054000CAF8040004F2BC10B0E80E10ABE80E10BC
:10055000ABF1100B0098C4F8BC010198C4F8C001BD
:100560000298C4F8C801C4F8C4B100E0814609F19A
:1005700004000721C9F804107F1C011D4145F5D373
:10058000022F01DA00F05ABFAA4500F09380AAEBCF
:10059000060041194A68520852004A6040F00101C1
:1005A00069604051C108202919D24A0004EB820237
:1005B00002F2280213461028E4D3012606FA01F0BD
:1005C0002168014206D1084320609560DD60AB6080
:1005D000EA606FE0936820698342F6D2D2E7010AAD
:1005E00008BF002223D0B1F5803F28BF1F221ED2B2
:1005F000A1F58072120C02F008029140A1F580531F
:100600001B0C03F004039940A1F58046360C06F05C
:100610000206C2F10E02D21A921BB14002EBD13196
:10062000CA1D20FA02F202F0010202EB410204EBC1
:10063000820101F23011EA6100236B612B61012616
:1006400006FA02F366681E4207D143EA06006060BC
:100650000D60A961ED60AD602CE009681F2A0EBF36
:1006600000225208C2F1190200FA02F200E0194613
:100670004B68DB08DB0083420ED0D30F01EB830312
:1006800003F1100652003368002BF0D12069864236
:10069000FFF478AF3560DCE7886822699142FFF4A7
:1006A00071AF9042FFF46EAFC5608D60A860E960E5
:1006B0000020A86100F054BBF8B504460D464F4E2B
:1006C000306808B9FFF744FD00F0D4FE010000F0E7
:1006D00091800A6811F1010F00F08C80D4F8B0010C
:1006E0001018C4F8B001D4F8B401D4F8B03198426D
:1006F00038BF1846C4F8B401A06968BB206908B1C6
:10070000814200D22161C4F8BC11C4F8C02100208C
:10071000C4F8C801306860624FF0FF3020622046A4
:10072000202300F22806F660B66008305B1EF8D180
:100730003348844204D1283A2046FFF723FD48E09D
:1007400054F8040CC00814EBC00008385118091AFA
:10075000A1F128020146EFE704F2BC10034600E0D5
:100760009B68BBB15E681F68F619B142F8D11E7B69
:1007700036070FD43E46A769B7420BD35F68D4F85B
:1007800018C0BE19B44505D2D0195860E0681218D7
:10079000A169D1E72369994238BF21610346501806
:1007A00000E09B688BB11E688642FAD1187B000777
:1007B0000BD4304619605E6892195A602B46024687
:1007C000204601B0BDE8F040FAE400232046FFF7E0
:1007D0007AFEE06885420DD2401BE060A1696A188C
:1007E000A26140F00100506045F00300486001F153
:1007F0000800F2BD0020F2BD00000000DCC30020B4
:100800007CBD00206859883C2DE9F04100224B4214
:100810000C0A08BF002423D0B4F5803F28BF1F2452
:100820001ED2A4F580752D0C05F00805AC40A4F58A
:100830008056360C06F00406B440A4F580473F0C01
:1008400007F00207C5F10E05AD1BED1BBC4005EB23
:10085000D434E51D21FA05F505F0010505EB440446
:1008600000EB8405D5F8305155B31F2C0EBF002680
:100870006608C6F1190601FA06F6002700E07600C0
:10088000D5F804C04FEADC0C4FEACC0CACEB010C01
:100890009C4502D22A4663467BB1D5F814C04FEA84
:1008A000D67E05EB8E052D69BCF1000F02D0AC455C
:1008B00018BF6746002DE2D13D4675BB002A3DD1E9
:1008C000012505FA04F4640065422C4345682C4078
:1008D00000F0518165422C40651E2C0B04F0100481
:1008E00025FA04F6750905F00805EE40B70807F08B
:1008F0000407FE404FEA560C0CF0020C26FA0CF6E8
:10090000C6F3400E2C193C196444744426FA0EF5C3
:100910002C1900EB8404D4F830517DB100E0254659
:100920006C68E408E400641A9C423CBF23462A46F3
:100930002C69002CF3D16D69002DF1D1002A00F053
:100940001A818468641AA34280F0158116460469EE
:10095000A64206D38C18CD185768FF08FF00AF4297
:1009600001D000F06BBDA642FBD29769D6689642D3
:100970000AD0D2F808C0D0F810E0F445F1D3CCF892
:100980000C60C6F808C023E002F2140CDCF800602A
:1009900046B902F1100CDCF80060CEB102E0F4467A
:1009A000DCF8006006F2140EDEF80080B8F1000FEB
:1009B000F5D106F1100EDEF80080B8F1000FEED18F
:1009C000D0F810E0F445CCD34FF0000ECCF800E0A6
:1009D000002F35D0D2F81CC000EB8C0C0CF2301C70
:1009E000DCF800E072450BD1CCF8006096B946689F
:1009F0000127D2F81CC007FA0CF7BE4346601FE07F
:100A0000D0F810C06745ACD3D7F810C094450CBFE0
:100A10003E617E61A6B1D0F810C06645A1D3B76132
:100A200017692FB1D0F810C067459AD33761BE61FE
:100A300057692FB1D0F810C0674592D37761BE6176
:100A4000102B08D245F003005060A818416841F00F
:100A5000010141608CE041F00301516043F001016C
:100A600061601B51D908202918D24B0000EB830389
:100A700003F228031E46012505FA01F105680D421F
:100A800004BF2943016004D09E6800698642FFF4D8
:100A900068AF9C60F460A660E36069E0190A08BF73
:100AA000002623D0B1F5803F28BF1F261ED2A1F516
:100AB00080752D0C05F00805A940A1F58056360C6F
:100AC00006F00406B140A1F580473F0C07F002078D
:100AD000C5F10E05AD1BED1BB94005EBD131CD1DA8
:100AE00023FA05F505F0010505EB410600EB86014B
:100AF00001F23011E6610025656125610125B540EF
:100B000047682F4207D13B462B4343600C60A161ED
:100B1000E460A4602CE009681F2E0EBF0025750854
:100B2000C5F1190503FA05F500E031464E68F608EF
:100B3000F6009E420ED0EE0F01EB860606F110077E
:100B40006D003E68002EF0D100698742FFF409AFC6
:100B50003C60DCE78B680569A942FFF402AFAB4259
:100B6000FFF4FFAEDC608C60A360E1600020A06158
:100B700002F1080000E00020BDE8F0812DE9F0411D
:100B8000426813465B421A40531E1A0B02F01002D1
:100B9000D3405C0904F00804E3409D0805F0040517
:100BA000EB405E0806F00206F340C3F34007A218CC
:100BB000AA18B218BA18FB409A1800EB8202D2F8B1
:100BC000304123466268D208D200521A07E06568B5
:100BD000ED08ED006D1A95423CBF2A462346256973
:100BE000002D14BF2C466469002CF0D11E46046908
:100BF000A64206D3CC188D185F68FF08FF00AF42ED
:100C000001D000F01BBCA642FBD29F69DE689E4269
:100C10000AD0D3F808C0D0F810E0F445F1D3CCF8EE
:100C20000C60C6F808C023E003F2140CDCF8006086
:100C300046B903F1100CDCF80060CEB102E0F446D6
:100C4000DCF8006006F2140EDEF80080B8F1000F48
:100C5000F5D106F1100EDEF80080B8F1000FEED1EC
:100C6000D0F810E0F445CCD34FF0000ECCF800E003
:100C7000002F35D0D3F81CC000EB8C0C0CF2301CCC
:100C8000DCF800E073450BD1CCF8006096B94668FB
:100C90000127D3F81CC007FA0CF7BE4346601FE0DB
:100CA000D0F810C06745ACD3D7F810C09C450CBF36
:100CB0003E617E61A6B1D0F810C06645A1D3B76190
:100CC0001F692FB1D0F810C067459AD33761BE6154
:100CD0005F692FB1D0F810C0674592D37761BE61CC
:100CE000102A08D245F003005860E818416841F026
:100CF0000101416030E041F00301596042F001011F
:100D00006160125187682FB341694FEAD70CBCF17B
:100D1000200FBFF476AF4FEA4C0500EB850505F2D6
:100D200028052E46102FFFF46CAF012707FA0CF7A9
:100D3000D0F800C01CEA070F04BF47EA0C070760A1
:100D400004D0AE680769BE42FFF45BAFA960F160F2
:100D50008E60CD608260446103F10800BDE8F081DF
:100D600003B0BDE8F08FF8B50446012000F0B7FBF2
:100D7000F52C80F0D3800B2C31BF102404F10B0034
:100D8000C408E400E308DFF8B006016821FA03F5BF
:100D900015F0030233D0EA4302F00102D3185A00DF
:100DA00000EB820202F22805AA68DC005668F60809
:100DB000F600A64201D000F041BB9668AA42FAD0E4
:100DC000B242F8D05768FF08FF00A742F3D1B542FE
:100DD00005D1012505FA03F39943016004E0006998
:100DE0008642E8D3AE60F56044F003005060A0187E
:100DF000416841F00101416002F10805D6E08268D6
:100E0000A24280F09E80002D00F07F80012202FA35
:100E100003F6760005FA03F3754235432B405D4235
:100E20002B405D1E2B0B03F0100325FA03F675090A
:100E300005F00805EE40B70807F00407FE404FEA4A
:100E4000560C0CF0020C26FA0CF6C6F3400EEB180A
:100E5000FB186344734426FA0EF5ED186B0000EBA3
:100E6000830303F22806B368EF00D3F804C04FEA07
:100E7000DC0C4FEACC0CBC459DD1D3F808C0B34282
:100E800099D0634597D0664502BF02FA05F5A9439C
:100E9000016006D001698C458DD3C6F808C0CCF836
:100EA0000C60391B44F003055D60E41841F0010556
:100EB0006560095186681EB34569F708202FBFF4A5
:100EC0007AAF4FEA470C00EB8C0C0CF2280CE6468C
:100ED000102EFFF470AFBA400668164204BF3243CA
:100EE000026005D0DCF808E002699645FFF463AFC4
:100EF000CCF80850CEF80C50C5F808E0C5F80CC086
:100F00008160446103F1080550E0416800293AD04E
:100F10002146FFF733FE050013D047E014F1400FE0
:100F200028BF4FF0FF340CD204F10B00C408E400DA
:100F3000DFF80405416821B12146FFF765FC050093
:100F400034D1DFF8F4048268A2421CD3131B416938
:100F5000102B0AD362184261836043F00100506095
:100F60009B5044F0030048600AE000238360436123
:100F700042F0030048605018426842F001024260AB
:100F800001F1080512E0C1688C420BD2091BC16057
:100F90008269A318836141F00101596044F00300A4
:100FA000506029E72146FFF787FB0546012000F046
:100FB000C1FA2846F2BD002800D17047F8B5A0F16B
:100FC0000804012000F08BFADFF86C542A6994427F
:100FD0001ED3636803F00300012819D0D808C000AD
:100FE0000119DE0729D4266813F0030300F0E2801C
:100FF000301873421C1994420AD36B699C4200F06A
:10100000CA80F308202B67D2A668E768BC4201D1EA
:1010100000F014BAB442FBD0D4F804C04FEADC0CA0
:101020004FEACC0CBCEBC30FF2D1BE4243D12A68CD
:10103000012606FA03F39A432A608C42E8D24A68F2
:10104000D307E5D5930700F15481AB69994240F08D
:10105000B580E9684018E860AC6140F0010161606A
:1010600069698C4202D100216961A960E969814204
:1010700080F0A080DFF8BC03006808B9FFF768F8CB
:10108000A869002800F09680E96829290BD305F2A9
:10109000BC121368984203D35468E318984202D3F1
:1010A0009268002AF5D1E869884280F083804FF089
:1010B000FF30E8617EE05B0005EB830303F1280C61
:1010C000664501D09642A3D328339F4201D0974270
:1010D0009ED3F760BE60B0E7A669E368A34205D07F
:1010E000A768974294D3FB609F601DE004F2140749
:1010F0003B6833B904F110073B68ABB101E06746C8
:101100003B6803F2140CDCF800E0BEF1000FF6D1EE
:1011100003F1100CDCF800E0BEF1000FEFD19742B4
:10112000FFF476AF00223A60002E86D0E26905EB2C
:10113000820202F230121768BC4208D113607BB9F8
:101140006A680123E669B3409A436A6075E72A69D1
:101150009642FFF45DAF3269A2420CBF3361736106
:10116000002B3FF46AAF2A699342FFF451AF9E61AE
:1011700022692AB12E69B242FFF44AAF1A61936123
:101180006269002A3FF459AF2E69B242FFF440AFC2
:101190005A61936151E70A7902F00302032A7FF44E
:1011A0004CAFA8604A68520852004A6040F0010102
:1011B00061600051012000F0BDF9F1BD6B699942F9
:1011C00004D1A9684018A8606C61EFE7D208D2008A
:1011D0001018D308202B24D28E68CF68B9423FF470
:1011E00017AFB1423FF414AFBE4205D129680122C6
:1011F0009A409143296073E0590005EB810101F1A8
:101200002802964203D02A699642FFF401AF2831A2
:101210008F4203D029698F42FFF4FAAEF760BE60B7
:101220005EE08B69CA688A4207D08E682F69BE4229
:10123000FFF4EEAEF26096601EE001F21406326832
:1012400032B901F110063268B2B101E03E463268AF
:1012500002F21407D7F800C0BCF1000FF6D102F17A
:101260001007D7F800C0BCF1000FEFD12F69BE42C4
:10127000FFF4CEAE0027376093B3CE6905EB860648
:1012800006F230163768B9420BD1326016468EB975
:101290006A680123C96903FA01F122EA0101696060
:1012A0001EE02E69B342FFF4B3AE1E698E420CBF3E
:1012B0001A615A61A2B12E69B242FFF4A9AE9361DC
:1012C0000B692BB12E69B342FFF4A2AE13619A6190
:1012D000496929B12B699942FFF49AAE51618A613B
:1012E00040F001016160005169698C4208D1A86039
:1012F00060E7520852004A6040F00101616000510D
:10130000C10820291BD24A0005EB820202F2280202
:1013100013461028FFF47CAE012606FA01F0296876
:10132000014204BF0843286004D0936828698342BF
:10133000FFF46EAE9460DC60A360E2603AE7010AFD
:1013400008BF002223D0B1F5803F28BF1F221ED244
:10135000A1F58072120C02F008029140A1F58053B1
:101360001B0C03F004039940A1F58046360C06F0EF
:101370000206C2F10E02D21A921BB14002EBD13129
:10138000CA1D20FA02F202F0010202EB410205EB53
:10139000820101F23011E2610023636123610126C1
:1013A00006FA02F36E681E4207D143EA060068603F
:1013B0000C60A161E460A4602CE009681F2A0EBFE4
:1013C00000225208C2F1190200FA02F200E01946A6
:1013D0004B68DB08DB0083420ED0D30F01EB8303A5
:1013E00003F1100652003368002BF0D128698642C1
:1013F000FFF40EAE3460DCE788682A699142FFF49E
:1014000007AE9042FFF404AEC4608C60A060E1605F
:101410000020A061286A401E28627FF4CBAED5F878
:10142000C40118B94FF0FF302862C3E68068002875
:10143000FCD1F7E7DCC300207CBD002080B5012093
:1014400000F086B800BF10B450F8041B81B10268E8
:101450001218001D50F8043BDC0744BFA9F1010439
:10146000E31852F8044B43F8044B091FF9D1EBE79A
:1014700010BC704706490868002801D0002070475A
:10148000044808600449C908C900091A0160704786
:1014900070C4002098D4002098D5002070B52B4C43
:1014A0002068D8B1251D0826284600F05CF82D1DBF
:1014B000761EF9D104F1240000F057F804F1280059
:1014C00000F053F804F12C0000F04FF804F1300064
:1014D00000F04BF804F1340000F047F870BDF8B5A7
:1014E00004461A4D2868D8B92E1D0827304600F04A
:1014F00039F8361D7F1EF9D105F1240000F034F8CB
:1015000005F1280000F030F805F12C0000F02CF86F
:1015100005F1300000F028F805F1340000F024F85F
:1015200001202860052C04D205EB8400243000F053
:101530001DF8F1BD052800D3704780B5034901EBC4
:101540008000243000F013F801BD00003CC30020EF
:1015500080B500F00DF8024A11001820ABBEFBE781
:101560002600020070477047704770477047704709
:1015700080B500F015F802000023DB4310689842A4
:1015800004D011000220ABBE0020106050689842C9
:1015900004D0111D0220ABBE0020506001BD000030
:1015A00000487047840000202DE9F04FA5B0174691
:1015B0001C460FF6B455D5E90023CDE9122303AD3F
:1015C0006860A9600020E86214AE4FF00A096FF06D
:1015D000004800E057440020ADF8020012AB4FF085
:1015E000FF3239460DF1020001F019F88246BAF1D6
:1015F000010F08DA3878B0F1010A6AEB0A0A6FEADB
:101600000A004FEAD07ABDF8020025280CBFAAF1E3
:1016100001025246012A0ADB394602A800F0D4FF33
:10162000002804D54FF0FF3025B0BDE8F08FBDF89D
:101630000200252807D100206861A861E8612862BE
:101640006862A86205E00028C4D1E86AECE740F0CF
:10165000010017F8011F2029F9D023290DD02B29CB
:1016600004D02D2906D030290AD00CE040F0020029
:1016700080B2EEE740F00400FAE740F00800F7E738
:1016800040F01000F4E72A290DD12268111D2160D5
:1016900011686963002904D54942696340F0040078
:1016A00080B27F1C10E00021696307E0696B41454F
:1016B00003D009FB0121303969637F1C3A78A2F11C
:1016C0003001C9B20A29F1D339782E291CBF4FF055
:1016D000FF3129631BD117F8011F2A2906D122687F
:1016E000111D2160116829637F1C10E0002129630E
:1016F00007E0296B414503D009FB012130392963FB
:101700007F1C3A78A2F13001C9B20A29F1D32887A7
:1017100039780FF6E86000F0A3FF08B117F8010B65
:101720008DF846009DF84600682804D1387868286E
:101730000AD1622005E06C2806D138786C2803D1E4
:1017400071208DF846007F1C14A828613A78104655
:10175000253827D01C3800F08780001F022840F26F
:101760008380133800F0AC8009387DD0801E00F0F3
:101770004481401E00F0ED80401E022874D9001FF5
:1017800000F0E780401F44D0401E00F09980401ECA
:1017900031D0C01E0CD0801E00F09280C01E00F020
:1017A0008F804BE16869411C6961252181554FE1BA
:1017B0009DF846006C28216813D0081D2060086839
:1017C000E8602A6B002A08D4002100F059FF0028A5
:1017D0001ABFE968401A286B01E000F07DFFA8619C
:1017E00036E1081D2060096802A800F0C5F900284C
:1017F00040F12E811FE12168081D2060086800214A
:10180000CDE9020114A8E860782102A800F015FBD8
:101810001EE19DF8460062281FD068280DD06A2876
:1018200012D06C2802D071280ED074282168081DAF
:1018300020600868E96A01600AE1E86A2268111D0F
:1018400021601168088003E1E86AC11723681A1D46
:1018500022601A68C2E90001FAE0E86A2268111DF4
:10186000216011680870F3E02068C01D20F00700B7
:101870002060034603F108002060D3E90001CDE9B0
:101880000201002904D56869411C69612D210DE020
:10189000288F810704D56869411C69612B2105E007
:1018A000C00704D56869411C6961202181556869B8
:1018B00014A94018E860114602A800F04DFBC7E0EB
:1018C0009DF846006C280FD0712801D06A280BD1F2
:1018D0002068C01D20F007002060034603F10800C7
:1018E0002060D3E9000104E02168081D2060086839
:1018F0000021CDE902019DF8460068280CD062283D
:1019000006D0742801D07A280CD1DDE9020106E066
:10191000DDE90201C0B202E0DDE9020180B200218E
:10192000CDE9020195F83800000760D5DDE9020134
:1019300009B900285BD042F02000782857D16869A7
:10194000411C6961302181556869411C696182557A
:101950004DE09DF8460062280CD0682810D06A2817
:101960001AD06C2824D0712816D0742820D07A2858
:101970000CD01DE02168081D206091F900001BE0DB
:101980002168081D2060B1F9000015E02168081DDC
:1019900020600868002110E02068C01D20F00700CA
:1019A0002060034603F108002060D3E9000104E051
:1019B0002168081D20600868C117CDE90201DDE932
:1019C000020100290EDB288F810704D56869411CBC
:1019D00069612B210AE0C00709D56869411C69616A
:1019E000202103E06869411C69612D2181556869E6
:1019F00014A94018E860114607E79DF846006C28D6
:101A000007D06869411C69612268111D2160116855
:101A1000CCE62168081D20600868ADF804000020AD
:101A2000ADF806004FF0FF30286301A902A800F0CE
:101A3000A3F800280CD54FF0FF300AE06869411C7C
:101A40006961252181551AB16869411C6961825516
:101A500000207F1C00287FF4E5AD686B6969401A9F
:101A6000296A401AA969401A696A401AE969401A44
:101A7000A96AA0EB010A95F83800400711D420208C
:101A80008DF80000BAF1010F0BDBD346012200A94B
:101A900002A800F099FD00287FF4C4ADBBF1010B52
:101AA000F4D16A6914A902A800F08EFD00287FF421
:101AB000B9AD30208DF80000D5F820B0BBF1010F92
:101AC0000ADB012200A902A800F07EFD00287FF4B5
:101AD000A9ADBBF1010BF4D1AA69E96802A800F035
:101AE00073FD00287FF49EAD30208DF80000D5F8FE
:101AF00024B0BBF1010F0ADB012200A902A800F00B
:101B000063FD00287FF48EADBBF1010BF4D1EA69CF
:101B1000A869E968411802A800F056FD00287FF482
:101B200081AD30208DF80000D5F828B0BBF1010F51
:101B30000ADB012200A902A800F046FD00287FF47C
:101B400071ADBBF1010BF4D195F8380040077FF57A
:101B500042AD20208DF80000BAF1010FFFF63BAD39
:101B6000012200A902A800F02FFD00287FF45AAD41
:101B7000BAF1010AF4D12EE52DE9F04F93B00746F2
:101B80000C46D7F83490B9F1000F48BF6FF0004908
:101B900000F0BDFDB96B00EB010A0FF66822D2E937
:101BA0000001CDE9010197F83C00400702D4BAF1E9
:101BB000410F05D20DF10C0B4FF0400A00250AE051
:101BC0005046FFF7D0F85FEA000BF7D14FF0FF3037
:101BD00030E1A9EB0809B9F1010FC0F2A08001AA18
:101BE00021880DF1010000F097FD5FEA000804D4A0
:101BF000208828B9B8F1010802D54FF0FF3512E16D
:101C0000C145C0F28C80B86908EB00018A4577D2E3
:101C1000BD634042796A401AF969401AB96A401AAC
:101C2000396A401AF96A451A97F83C0040070ED401
:101C300020208DF80000012D09DB2E46012200A98D
:101C4000384600F0C1FC0028D7D1761EF6D1BA691B
:101C50005946384600F0B8FC0028CED130208DF827
:101C600000007E6A012E08DB012200A9384600F040
:101C7000ABFC0028C1D1761EF6D1FA693969384625
:101C800000F0A2FC0028B8D130208DF80000BE6A18
:101C9000012E08DB012200A9384600F095FC00283F
:101CA000ABD1761EF6D13A6AF869396941183846DF
:101CB00000F08AFC0028A0D130208DF80000FE6AD8
:101CC000012E08DB012200A9384600F07DFC002827
:101CD00093D1761EF6D197F83C0040070ED5202010
:101CE0008DF80000012D09DB012200A9384600F023
:101CF0006BFC00287FF481AF6D1EF5D10025BD611E
:101D000042460DF10101B869584400F013FDB8696D
:101D10004044B86134F8020B00287FF45AAFB86B26
:101D2000B969401A796A401AF969401AB96A401AC1
:101D3000396A401AF96AA0EB010897F83C0040079D
:101D400010D420208DF80000B8F1010F0ADB4446C2
:101D5000012200A9384600F037FC00287FF44DAF7F
:101D6000641EF5D1BA695946384600F02DFC0028AA
:101D70007FF443AF30208DF800007C6A012C09DB32
:101D8000012200A9384600F01FFC00287FF435AF7F
:101D9000641EF5D1FA693969384600F015FC00284F
:101DA0007FF42BAF30208DF80000BC6A012C09DBDA
:101DB000012200A9384600F007FC00287FF41DAF7F
:101DC000641EF5D13A6AF86939694118384600F05D
:101DD000FBFB00287FF411AF30208DF80000FC6A77
:101DE000012C09DB012200A9384600F0EDFB002898
:101DF0007FF403AF641EF5D197F83C00400710D57F
:101E000020208DF80000B8F1010F0ADB012200A9A3
:101E1000384600F0D9FB00287FF4EFAEB8F1010896
:101E2000F4D1BD61BD6303A883451CBF5846FFF7CD
:101E3000C2F8284613B0BDE8F08F2DE9FA4786B006
:101E40000546686900909DF818006F2808BF0827AC
:101E500005D040F02000782814BF0A2710273C2422
:101E6000D5E90001064689469DF81820642A01D06C
:101E7000692A04D1002902DA764269EB4909B9F1ED
:101E8000000F0DD166B9686B50B9082F3FD195F896
:101E90003C0000073BD5641E00983021215436E0F9
:101EA000A4F101084446F817CDE9047030464946CC
:101EB000DDE9042300F080FCCDE90201B246DDE952
:101EC0000223DDE90401A0FB02695046801B30308B
:101ED000C0B23A2803D39DF8181051390818009958
:101EE00008F80100DDE90269B9F1000F00D126B15F
:101EF0002869009961188842D2D3082F07D195F834
:101F00003C00000703D50098205C3028C3D1C4F101
:101F10003C00E861009961182961696B884207DA21
:101F2000081A6862A88F4FF6EF710840A88710E082
:101F300000290ED595F83C1001F01401102908D1A4
:101F4000A96BAA69891A6A6A891A0C1A012CA8BF96
:101F50006C6208B0BDE8F0872DE9F24F8EB00546FF
:101F600004AFD5E90001CDE902019DF8380040F049
:101F700020008DF8000061280BD0686B002848BF56
:101F8000062005D405D19DF80000672801D1012065
:101F900068636968C1F30A5040F2FF72904225D02D
:101FA000012819DA284600F095FC012814DB0024EA
:101FB00000209DF80010612940D12A69511C296137
:101FC0003021117029694A1C2A619DF83820612A44
:101FD0000CBF782258222DE040F2FE316A6861F38E
:101FE0001E526A60441A4FF0FF30E2E7080301D145
:101FF000286870B10320E8619DF838006138C0B2EC
:102000001A2811D30FF208610322286900F092FB0D
:102010009EE10320E8619DF838006138C0B21A28BB
:1020200005D30FF2F451EFE70FF2E051ECE70FF2B6
:10203000E451E9E70A70A969891CA96110B9002671
:10204000B0467BE19DF80000612840F09780686B06
:1020500000284CBF2126461C36B2771CD5E900ABC0
:10206000DDE902010022002300F056FC3ABF8BF0AC
:102070000040CDE902A0CDE902ABA4F104088DF83F
:1020800010200DF11109012F33DBDDE902010022DF
:10209000002300F059FC2CD21C2102A800F06CFC9B
:1020A000DDE9020100F0F4FC0446FF1F012F09DB0B
:1020B00000F01AFD02460B46DDE9020100F02CFD9E
:1020C000CDE9020109F207000721012C0BDB491EB3
:1020D0005EBF04F00F0200F8012D2411F5D502E0D7
:1020E000002200F8012D491EFAD500F20709012F40
:1020F000CBDA0DF11100A9EB00010DF11107B1428E
:10210000B8BF0E4636B2002E31D43046884206DAC9
:1021100004A941184978082928BF0F2100D20021BD
:1021200004AA821800E0761E401E12F801398B4284
:10213000F9D00F2904D104A941184A78521C4A70D9
:10214000002803D504AF761C08F1040836B2701ECF
:102150000DD4C1190A783032D2B23A2A03D39DF88D
:1021600038303A3B9A1801F80129401EF2D5686BC5
:10217000002840F1E380701E6863DFE0DDE90201C2
:102180000022002300F0C8FB05D2DDE9020181F046
:102190000041CDE9020124B247F2975060436E49F5
:1021A00090FBF1F80FFA88F8C8F107040027DFF870
:1021B000AC91012C19DBDDE902ABE00707D55046F5
:1021C00059463A464B4600F067FD82468B466410FE
:1021D000384649463A464B4600F05EFD074689467A
:1021E000002CEAD1CDE902AB21E064429246DFF84F
:1021F00070B114D0E00707D5504659463A464B46D1
:1022000000F04AFD82468B466410384649463A46FD
:102210004B4600F041FD07468946002CEAD1DDE936
:10222000020152465B4600F009FECDE902019DF82D
:10223000000066280CBF08F10A000620696B4618EA
:10224000142EA8BF132630208DF810000DF11104B4
:10225000444F012E2FDBDDE9020100F02FFC04F1D9
:10226000080104220A23B0FBF3F403FB140030300E
:1022700001F8010DB4FBF3F003FB1043303301F818
:10228000013D521EEED101F10804083E012EE0DBB3
:10229000DDE9020100F012FC00F030FC02460B46C2
:1022A000DDE9020100F038FC00223B4600F0F4FCBE
:1022B000CDE90201CFE70DF11100201A0DF1110750
:1022C0009DF81110302906D1401EA8F1010817F819
:1022D000011F3029F8D09DF80010662904BF0FFABD
:1022E00088F808F1010103D065290CBF0121002104
:1022F0006A6B8E1836B2B042B8BF064636B2002EB0
:102300001CD43146814204DAC85D352828BF392003
:1023100000D23020CA19521E00E0761E491E12F863
:1023200001398342F9D0392802D1C85D401CC85513
:10233000002903D57F1E761C08F101080FFA88F0EA
:10234000009033B23A469DF83810284600F010F855
:102350000FB0BDE8F08F0000A0860100000024400F
:102360000000F03F84D7974100000000000000000B
:102370002DE9F04786B006468A4690461C46BDF9D0
:10238000385000F09CFE406A90F80090776B012C6A
:1023900002DA01240FF284284AF02000662807D0D0
:1023A00067287AD16FF003018D427CDBBD427ADA77
:1023B0006D1C66280AD096F83C00000702D4BC4287
:1023C000B8BF27462DB27F1B48BF00273069F1698F
:1023D0002DB2012D21DA4A1C30230B54012F03DAD0
:1023E00096F83C10090702D502F80090521CF261E1
:1023F000EF42B8BF7D422DB26942B162EF19A742E8
:10240000B8BF3C4624B2346222464146F3691818EC
:1024100000F090F9381BF062BFE00818AC4216DA01
:102420002246414600F086F9F1696118F161281BE6
:10243000B062012F03DA96F83C00000705D5306939
:1024400001F80090306A401C3062F762A5E02A462D
:10245000414600F06FF9F0692818F061641B012F04
:1024600003DA96F83C10090704D5411CF161316983
:1024700000F8019024B2A742B8BF3C4624B22246DD
:1024800005EB0801F0693369C01800F053F9F069F1
:102490002018F061381BB0627FE0BAF1610F14D1EF
:1024A0004FF0700A16E0BC4204DA96F83C100907B7
:1024B00058BF27467F1E48BF0027BAF1670F14BFD9
:1024C0004FF0450A4FF0650A04E0BAF1410F08BF2A
:1024D0004FF0500AF1694A1C306918F8013B0B545F
:1024E000012F03DA96F83C10090702D502F8009094
:1024F000521CF261012F10DB641E24B2A742B8BF48
:102500003C4624B222464146F369181800F012F9FD
:10251000F0692018F061381BB062F069316900EB96
:10252000010808F801AB002D5CBF2B2008F8010B57
:1025300003D52D2008F8010B6D42002402AF2DB207
:10254000012D0EDB0A22294600A800F0D1FD0198DA
:1025500007F8010B009D641C2DB2012DF2DA022C4C
:1025600006DA4AF02000652804BF302008F8010B85
:102570001CB9302008F8010B09E0012C07DB641EB0
:1025800002A8205C303008F8010B012CF7DAF06962
:1025900031694018A8EB0000306296F83C0000F06A
:1025A000140010280DD1B069F1690818B16A081833
:1025B000316A0818F16A0818B16B8842BCBF081A62
:1025C000706206B0BDE8F08770B504460D46164649
:1025D0000020002E10D015F8011BE068A26890477B
:1025E000E060002802D14FF0FF3070BD206B401C2E
:1025F00020630020761EEED170BD0000686A6C7406
:102600007A4C000000000000000000006E616E00C7
:102610004E414E00696E6600494E46003000F8B5E6
:1026200004460D4616461F4600F06AFD3B463246FC
:102630002946204601B0BDE8F04000F079BD50F8D1
:10264000041B61B150F8042BD30744BFA9F1010367
:102650009A18002342F8043B091FFAD1EFE77047AC
:102660000278C9B28A421AB11CBF10F8012FF9E7EB
:1026700018BF002070470268531C03601170704738
:10268000C9B2830706D0521E22D310F8013B9942EB
:10269000F7D11FE0083A13D302F1040241EA012105
:1026A00041EA014150F8043B121F21BF4B40A3F106
:1026B000013C2CEA030C1CF0803FF3D0C9B2001F90
:1026C000083210F8013B521E28BF91EA030FF8D8D8
:1026D00018BF0120401E704700F10103810704D09C
:1026E00010F8011B89B18107FAD10268B2F10131FA
:1026F000914311F0803F04BF50F8042FF6E710F823
:10270000011B11B110F8011BFBE7C01A704780B51F
:1027100000F0F6FC012002BD70B504460D461646D9
:1027200000F0EEFC324629462046BDE8704000F03D
:10273000F1BC00004AB38B0707D0521E11F8013BD1
:1027400000F8013B21D08B07F7D183071ED1103A47
:1027500007D330B4B1E83810103AA0E83810F9D2F5
:1027600030BC530724BFB1E80810A0E8081044BFEC
:1027700051F8043B40F8043BD20724BF31F8022B48
:1027800020F8022B44BF0B7803707047083A07D338
:10279000B1E80810083A40F8043B40F804CBF7D2FF
:1027A0005307E4E713F0004C03D55B42524263F158
:1027B00000039CEA210C15D11B4229D109424CD1BE
:1027C0002AB18446B0FBF2F002FB10C2704700F061
:1027D000CFBCFCD30022002370470B000200002175
:1027E0000020704710B5644603D34942404261F16E
:1027F0000001FFF7E1FF640004D34942404261F168
:102800000001244203D55B42524263F1000310BD34
:10281000904271EB030CE0D370B5B1FA81F4B3FAD6
:1028200083F52C1BA340C4F1200532FA05F633438F
:10283000A2405FF00046E64002E05B085FEA320239
:10284000841A71EB030524BF204629467641F4D350
:1028500002000B003000002170BD012AB9D970B50B
:10286000140C20D0B1FA81F4B2FA82F5C4F120043C
:102870006419B4F12006D6D3B2405FF00044F440AE
:10288000002502E052085FEA3303C61A71EB020E1C
:1028900024BF3046714664416D41F3D302000B0002
:1028A0002000290070BD0C46B1FBF2F102FB11457E
:1028B0002D0445EA1045B5FBF2F402FB145580B235
:1028C00040EA0545B5FBF2F002FB105240EA044035
:1028D00070BD000070B4416801F0004201210D4B51
:1028E00044681C40446001D104686CB104684568C8
:1028F000E60F46EA4505456064000460491EEC02A7
:10290000F4D544682340436043681A434260084654
:1029100070BC7047FFFF0F004FF4001C1CEB410F11
:1029200094BF1CEB430F09E041EA030C50EA4C0C46
:1029300052EA0C0C03D2994208BF9042704714BF70
:102940008B428242704700004FF4001C1CEB410F89
:1029500094BF1CEB430F09E041EA030C50EA4C0C16
:1029600052EA0C0C03D28B4208BF8242704714BF5C
:10297000994290427047000070B504460D46606869
:10298000C0F30A5040F2FF71884209D16068000329
:1029900002D12068002801D0022070BD012070BD46
:1029A00030B92046FFF796FF012801DB002070BDFB
:1029B000012D0EDB40F2FF71091A8D4209D36068C8
:1029C000002847BF00202F4900202F49C4E90001FB
:1029D000E4E74142A942616806DA2C4A11404019F5
:1029E00041EA0050606049E001F000416268120372
:1029F000120B42F480126260401E451905F1350049
:102A0000352803D361600020206070BD002215F1DD
:102A10001F0F05DA203522686068206000206060A2
:102A2000684213D0521E9241D243C0F12003256860
:102A30009D4055EAD2722568C540666806FA03F3E0
:102A40002B432360636823FA00F0606060680843EA
:102A50006060B2F1004F03D80AD12078C00707D5D3
:102A60002068401C2060206810B96068401CB9E7ED
:102A70006068884202D12068002897D04FF0FF306C
:102A800070BD00BF0000F0FF0000F07FFFFF0F806F
:102A9000F446400D40EAC120490006D200F013F888
:102AA000004248BF6FF00040604700F00CF84FF064
:102AB000004188428CBF084640426047400D40EAD2
:102AC000C12049000CD240F00040490DA1F58061C1
:102AD000491C05D4D1F11F0154BFC840C01770472D
:102AE0004FF0000070470000010040F10880F446FC
:102AF000404200F004F851F000416047010009D065
:102B0000B0FA80F18840C91CC1F58461090501EB68
:102B1000D02140057047000070B44FF0004591EAA5
:102B2000030F44BF6B4000F02EBB841A71EB030609
:102B300004D26E40001BB141121973414FF4001CC6
:102B40001CEB410F34BF7CEB430684E00C0DA4EB7F
:102B50001356362E7DDC012E43DC45EAC32343EABF
:102B6000525312BFD20292025B08240545EAC121EA
:102B700041EA5051D2EBC020994125D407D1B0FA97
:102B800080F610FA06F164D00020203608E0B1FA91
:102B900081F6B140C6F1200220FA02F21143B040A2
:102BA0004FEAF474B4EB465434F001064FEA74046F
:102BB0000AD8D6F50016760D04F00044F04061FA0C
:102BC00006F25040F1404840C00A40EA415021F02E
:102BD000004128BF5FEA500550F1000044EBD121CD
:102BE00037E045EAC323DB0A45EAC121C90AB6F149
:102BF00020050EDD42EA0242120CC5F1200603FA5E
:102C000006F6EB4042EA06056D42984161F100018B
:102C10000DE062FA06F5F240554063FA06FC82EADE
:102C20000C02F3405A406D42904161EB030111F4F4
:102C3000801F05D1641E620502D06D0040414941EC
:102C400021F48011430875F1004350F1000041EB7D
:102C5000045170BC70471CEB410F15D223F00043A8
:102C600052EA43060BD04FEA4C0CBCEB410F04D8A0
:102C70000C0D661E342EB7DDEBE7801A994150EA41
:102C8000410608BF0021E4E708BF1CEB430F28BF43
:102C90006FF00001DDE70000B0B581EA030C0CF035
:102CA000004C40F2FF7515EA11541DBF15EA135789
:102CB000AC42AF4239E0E41923EA455343F48013B0
:102CC000C90241F0004141EA505EC7021100A7FB72
:102CD000020200284FF00000EEFB01204FF000013F
:102CE000E3FB072118BF42F00102401800214941CF
:102CF000E3FB0E01A4F580640F0302D252004041B1
:102D0000494154F101046CDD470872F1004250F171
:102D1000000051EB0451A1F580115CBF41EA0C01A8
:102D2000B0BD4CEA05510020B0BD05EA1357AC42D6
:102D300014BFAF4241E050EA410E1CBF52EA430EBD
:102D400002E061460020B0BD24423C441BD15FEA52
:102D5000070EF6D0090302BF01460020AEF1140EA3
:102D6000B1FA81F7AEEB070401FA07FE0C37C7F1A1
:102D7000200100FA07F7C8404EEA000E23EA455347
:102D800043F48013A2E733F00043B3FA83F704BFA0
:102D9000B2FA82FE77440B3FE41BB7F1200E2FBF3F
:102DA00002FA0EF3BB40C7F1200E22FA0EFE38BF26
:102DB00043EA0E03BA40641C82E750EA410E14BF96
:102DC00052EA430E6FF000014FF4001717EB430F68
:102DD0008ABF194617EB410FB5E74CEA05510020B1
:102DE000B0BDD4F10104B4F120070FDAC4F120071B
:102DF000520828BF42F0010210FA07F501FA07F75E
:102E0000E1BF2A43E0403843E1400FE0352C98DC35
:102E1000C7F1200452EA400220FA07F218BF42F03C
:102E2000010231FA07F0A1400A43002172F1004289
:102E300050F1000051EB0C01B0BD0000F0B540F2C4
:102E4000FF7581EA030C0CF0004C15EA11541DBF0C
:102E500015EA1357AC42AF42E5E0BC41C1F31301A0
:102E6000C3F31303801A994143F4801304D2641E00
:102E70004000494180185941C90241EA5051B1FB13
:102E8000F3F603FB1611A2FB0675D7EBC020A94190
:102E900002D2761E80185941C90241EA5051B1FB55
:102EA000F3FE03FB1E11A2FB0E75D7EBC020A94158
:102EB00003D2AEF1010E80185941890241EA9051C6
:102EC000760546EA8E2EB1FBF3F603FB1611A2FB44
:102ED0000675D7EB8020A94102D2761E8018594191
:102EE000C90241EA50514EEA060EB1FBF3F603FB6C
:102EF0001611A2FB0675D7EBC020A94102D2761E9F
:102F000080185941C90241EA5051B1FBF3F703FB64
:102F10001711A2FB0735D3EBC020A94167F10007C9
:102F20000CBF004247F0010766F3D5274FEA1E3178
:102F3000B80814F5806412DDBD0775F1004250EB4E
:102F40000E5051EB045111F5801F5CBF41EA0C019A
:102F5000F0BD4CF07F6141F0E0410020F0BDBD07C5
:102F60006D0840EA0E5041F48011D4F10104B4F12F
:102F700020060ADAC4F120060200E04001FA06F356
:102F8000E1401843B24015430EE0342C13DCC6F187
:102F9000200445EA40056D0820FA06F2154321FA9F
:102FA00006F0A1400D43002175F1004250F10000F0
:102FB00051EB0C01F0BD00205FEA0C01F0BDCFB970
:102FC00092185B41B3FA83F704BFB2FA82F6BF19D5
:102FD0000B3FB7F120062FBF02FA06F3BB40C7F143
:102FE000200622FA06F638BF3343BA401CB1E41972
:102FF000641E33E77F4231F00041B1FA81F404BF2F
:10300000B0FA80F6A4190B3CB4F120062FBF00FAE9
:1030100006F1A140C4F1200620FA06F638BF31437C
:10302000A0403C1B1AE7AC421ABF05EA1357AF4257
:1030300012E050EA41061CBF52EA4306BFE750EADD
:103040004107304661461CBF41EA0551F0BD52EAD6
:10305000430C08BFC143F0BD00204FF4001616EB2F
:10306000410F98BF16EB430F08BF16EB410F24BF6B
:10307000C14305E016EB430F0CBF61464CEA055116
:10308000F0BD000080B5134800F0E7F80FF24801EA
:10309000016041608160C1600161416181610FF245
:1030A0003C0242628162C162016341630FF23002FD
:1030B00082630FF23402C2630164416401BD10B542
:1030C000044800F0CAF80446206808B9FFF7DAFFA0
:1030D000204610BD00000020000000002E0000006F
:1030E00066616C7365000000747275650000000015
:1030F00091FBF2F303FB1211C0E9003170470000AD
:1031000080B5DFF80C0000F0A8F8806902BD00006F
:1031100090C2002030B438B90FF24400D0E9004525
:10312000C2E90045002001E00170012030BC704779
:1031300030B439B90FF23000D0E90045C3E9004599
:1031400000200BE012B96FF0010007E008B10A7827
:1031500002800978481E8041C043C00F30BC7047D0
:10316000000000000000000000000000000000005F
:103170007047000070B44FF0004591EA030C44BF63
:103180006B40FFF7D2BC841A71EB030603D2001B1D
:10319000B141121973414FF4001C1CEB410F34BFB5
:1031A0007CEB430443E00C0DA4EB1356352E50DCAE
:1031B00045EAC323DB0A45EAC121C912B6F120055D
:1031C0000DDD63FA05F6EB4086EA0305124218BFEF
:1031D00045F00105C01851F100010CD213E062FA6C
:1031E00006F5F2405540F3415A40B340F3405A408F
:1031F0008018594107D349085FEA30005FEA350576
:1032000028BF45F0010501F58011420875F1004223
:1032100050F1000041EB045170BC4FF4001C1CEB5A
:10322000410F38BF70470020090D090570471CEB9E
:10323000410F10D252EA43060BD0BCEB410F05D828
:103240000C0DAB43661E342EB5DD02E0AB43801897
:10325000594170BC704770BC7047704738B5040066
:10326000002C60680028002C0BD0250024686868BA
:103270000028686800F01AFF2900032001F0E1F837
:10328000F1E731BD10B500200400E4B20A2C56D29B
:10329000E4B21420DFF8441900FB0410C07B401C8A
:1032A000E4B21421DFF8342901FB0421C873E4B22D
:1032B0001420DFF8281900FB0410807B022808D1B5
:1032C000E4B21420DFF8141900FB0410C07BF028CE
:1032D00011D2E4B21420DFF8041900FB0410807B43
:1032E00001282AD1E4B21420DFF8F01800FB041002
:1032F000C07B022821D3E4B21420DFF8E01800FBE1
:1033000004100068002810D0E4B21420DFF8CC18B4
:1033100000FB04100068FFF7A1FFE4B21420DFF8FF
:10332000BC1800FB041000210160E4B21420DFF897
:10333000AC1800FB041000218173641CA5E710BDCC
:103340002DE9F24F82B004000A208DF800000A2512
:103350000A265FF0000B00275FF000085FF00A0903
:103360005FF0000A002C1CD0DFF8740800781421EC
:10337000DFF8682801FB0020807B022811D120683B
:10338000DFF85C1809781422DFF8503802FB0131AD
:103390004968884205D1DFF8480890F9000040B23A
:1033A00017E1002083465FFA8BFBBBF10A0F80F028
:1033B0009C8076B20A2E0BD15FFA8BFB1420DFF8CB
:1033C0001C1800FB0B10807B002801D15E4689E0B1
:1033D0005FFA8BFB1420DFF8041800FB0B10807BD6
:1033E00001284BD1002C11D020685FFA8BFB1421EF
:1033F000DFF8E82701FB0B214968884206D1DFF896
:10340000E00780F800B0584640B2E2E05FFA8BFB7C
:103410001420DFF8C81700FB0B100068002816D036
:103420005FFA8BFB1420DFF8B41700FB0B10C07B96
:103430005FFA8AFA504555D3D9465FFA8BFB1420C0
:10344000DFF8981700FB0B10C07B82464AE05FFA5A
:103450008BFB1420DFF8841700FB0B10C07BFFB23E
:10346000B8423FD38DF800B05FFA8BFB1420DFF831
:103470006C1700FB0B10C07B070033E05FFA8BFB7F
:103480001420DFF8581700FB0B10807B022829D18D
:10349000002C11D020685FFA8BFB1421DFF83C2749
:1034A00001FB0B214968884206D1DFF8340780F818
:1034B00000B0584640B28CE05FFA8BFB1420DFF876
:1034C0001C1700FB0B10C07B5FFA88F8404509D33E
:1034D0005D465FFA8BFB1420DFF8001700FB0B1032
:1034E000C07B80461BF1010B5DE776B20A2E06D148
:1034F0009DF8080010F00300012804D106E09DF8B3
:103500000800800702D55FF0FF3062E076B20A2E35
:1035100001DAB34632E06DB20A2D0ADAAB465FFA41
:103520008BFB1420DFF8B41600FB0B10006800289A
:1035300024E09DF900000A2803DA9DF80000834684
:103540001CE04FFA89F9B9F10A0F14DACB465FFA99
:103550008BFB1420DFF8841600FB0B100068FFF7CC
:103560007DFE5FFA8BFB1420DFF8701600FB0B105A
:103570000021016002E05FF0FF302AE05FFA8BFB80
:10358000BBF10A0F5FFA8BFB1420DFF8501600FB2B
:103590000B1000218173002C0CD0002C01D10020D5
:1035A00000E020685FFA8BFB1421DFF8302601FB76
:1035B0000B2148605FFA8BFB1420DFF8201600FB1C
:1035C0000B100021C173DFF8180680F800B05846D0
:1035D00040B2BDE8FE8F2DE9F84304000D0016004F
:1035E0001F00D5F8048094F82000062806208146A4
:1035F0005FFA89F9B9F1010F13D3B9F101095FFA43
:1036000089F95FFA89F919F8070009F808005FFAE3
:1036100089F919EB08005FFA89F919F80610817128
:10362000E6E74FF4006000F031FFA8F80C00290035
:103630002000A2699047BDE8F2832DE9F84F04000D
:103640000D0016001F0094F820000628002D15D04C
:103650002868002812D02100280000F037FF002839
:103660000CD15FF0704000F02AFF296810EA010ACF
:103670005FF0604000F023FF824502D17FF0090037
:1036800071E03900C9B22800FFF75AFE80464FFAB0
:1036900088F8B8F1000F02D5404640B263E04FFA17
:1036A00088F81420DFF8341500FB0810022181731C
:1036B0004FFA88F81420DFF8241500FB0810046185
:1036C000062081465FFA89F9B9F1010F12D3B9F1E9
:1036D00001095FFA89F94FFA88F81420DFF8FC1421
:1036E00000FB081019EB00005FFA89F919F80610C1
:1036F0000172E7E74FFA88F81420DFF8E01400FBC6
:1037000008100021C1734FFA88F81420DFF8CC1498
:1037100000FB08100068002824D04FFA88F8142015
:10372000DFF8B81400FB0810D0F800B04FFA88F8A2
:103730001420DFF8A81400FB0810DBF8001001606B
:10374000DBF8040082465946032000F07AFE33007D
:1037500014F1210251462000FFF73DFF504600F0D2
:10376000A5FCD0E70020BDE8F28F70B504000D0085
:10377000002C11D068680600D6F81A00A16808402D
:103780006168A2681140884206D10023B21D16F17B
:103790001A012000FFF751FF70BD2DE9FC4704001E
:1037A0000D001600002C00F0B68070892A2803D284
:1037B000300000F07BFCAEE070680700B7F80EA0A8
:1037C000012000F063FE824517D1B7F812A040F245
:1037D000046000F05BFE82450FD1B7F810A04FF4F3
:1037E000006000F053FE824507D1B7F80CA040F608
:1037F000060000F04BFE824503D0300000F056FC7E
:1038000089E0042217F11C0100A800F08BFE0422BD
:1038100017F1260101A800F085FE6068002802D19A
:103820000020814608E001986168884202D15FF07B
:10383000010901E05FF000095FFA89F9B9F1000FB1
:1038400007D0012317F1160200A92000FFF7F5FEAB
:1038500006E0002317F1160200A92000FFF7EDFE95
:10386000B88A00F013FE012802D002284FD04FE0A2
:103870005FFA89F9B9F1000F48D0022000F006FE86
:10388000B88217F1260017F11C010422FEF752FF3F
:103890000422211D17F11C0000F044FE94F82000C2
:1038A0000628062080465FFA88F8B8F1010F28D371
:1038B000B8F101085FFA88F818EB07005FFA88F89A
:1038C00018EB0701897D80F820105FFA88F818EB63
:1038D0000700807D5FFA88F808F807005FFA88F82B
:1038E00018EB07005FFA88F818F8051081755FFA81
:1038F00088F818EB07005FFA88F818F8051081714E
:10390000D1E731002000A2699047FFE700E0FFE720
:10391000300000F0CBFBBDE8F3872DE9FC4104004B
:103920000D0016000E21280000F071FB002802D0C7
:103930007FF0010056E0002007002100300000F079
:10394000C5FD002803D00FF23840070043E05FF0C8
:10395000704000F0B4FD316810EA01085FF060408B
:1039600000F0ADFD80451ED101208DF80000002043
:103970008DF801005E208DF80200306800F09FFD98
:10398000000C10F07F008DF80300306800F097FD08
:10399000000A8DF80400306800F091FD8DF80500F4
:1039A00000A8070017E03068A16808406168A268B5
:1039B0001140884209D0E068002803D004F20C00CE
:1039C000060002E07FF003000CE02A003100200036
:1039D00000F00AF806E03B0014F121022900200063
:1039E000FFF7F9FDBDE8F6812DE9F84F04000D0061
:1039F000160004F2210000905FF0FF37210028003C
:103A000000F064FD002811D15FF0704000F057FD18
:103A1000296810EA01095FF0604000F050FD81451F
:103A200004D0002D02D02868002802D17FF00900C0
:103A3000D0E001212800FFF783FC80464FFA88F888
:103A4000B8F1000F02D5404640B2C3E04FFA88F803
:103A50001420624900FB0810807B002807D14FFA30
:103A600088F814205D4900FB0810012181734FFA8A
:103A700088F81420594900FB0810807B012807D0E2
:103A80004FFA88F81420554900FB0810807B022863
:103A90004FFA88F81420514900FB0810807B012858
:103AA00001D0002E04D12900200000F01EF90700EB
:103AB000002E00F08D804FFA88F81420474900FB53
:103AC0000810807B02280ED14FFA88F81420434951
:103AD00000FB081010F10803009A31002000FFF7E6
:103AE0007AFD070074E04FFA88F814203B4900FB88
:103AF0000810807B01286BD15FF00009B246BAF153
:103B0000000F12D0BAF80A00BAF80810884202D1A1
:103B1000DAF8000000289AF80C00012802D00120F1
:103B2000814602E0DAF800A0E9E7B9F1000F15D00C
:103B30000022BAF80810032000F02AF98246BAF1F0
:103B4000000F0FD03100504600F02DFB002809D0A7
:103B5000504600F0ABFA0020824603E0B2465046E1
:103B600000F0F4FABAF1000F32D0032000F04FFC5D
:103B70008346BBF1000F28D00020CBF80000CBF823
:103B800004A04FFA88F81420144900FB08100068BC
:103B900000280FD04FFA88F81421104A01FB0821A1
:103BA000096808000168002901D00068FAE7C0F838
:103BB00000B007E04FFA88F81420084900FB08100D
:103BC000C0F800B00020070002E0504600F06EFA96
:103BD000380040B2BDE8F28F0000000030C0002085
:103BE00090C400202DE9F24F040015001E000B9F29
:103BF0005FF0000900222A21032000F0C9F8804666
:103C0000B8F1000F02D15FF0FF306CE0B8F80A00A5
:103C10002A28D8F804008346BDF8340000F036FCAA
:103C2000ABF8140094F820000628062082465FFABC
:103C30008AFABAF1010F27D3BAF1010A5FFA8AFAB8
:103C40001AEB0B005FFA8AFA1AF8061081755FFA10
:103C50008AFA1AEB0B005FFA8AFA1AF8071080F852
:103C600020105FFA8AFA5FFA8AFA1AF805000AF851
:103C70000B005FFA8AFA1AEB0B005FFA8AFA0099D6
:103C80001AF801108171D2E71BF11C000A99042275
:103C9000FEF750FD1BF126000C990422FEF74AFDA9
:103CA000012000F0F3FBABF80E004FF4006000F0D1
:103CB000EDFBABF8100040F2046000F0E7FBABF85E
:103CC000120040F6060000F0E1FBABF80C004146A4
:103CD0002000A26990478146404600F0E7F90020A5
:103CE0008046484640B2BDE8F28F30B585B004004A
:103CF0000D000120039002950FF28C000190201D11
:103D0000009014F121030FF2780214F12101200038
:103D1000FFF768FF05B030BD70B504000D006068A6
:103D20000600B08900F0B2FBB0F5006F04D040F699
:103D30000601884216D01CE021002800FFF715FD7F
:103D40007FF00D01200000F062F9002805D020006E
:103D500000F0ACF90020040003E02900200000F08E
:103D600014FC0BE0220015F121012800FFF715FDDE
:103D700004E0200000F09AF900200400002070BD4B
:103D8000FFFFFFFFFFFF0000000000000000000039
:103D90002DE9F84F04008B46150000208246E4B25E
:103DA000002C05D0022C07D004D3032C07D007E049
:103DB0001AF1140A1AF1140A1AF10E0A02E001E0CB
:103DC0000020DBE0EDB2002D00F09380022D00F02A
:103DD000BC80C0F0BA80032D40F0C980052000F0FF
:103DE00016FB0600002E01D10020C7E0357300202D
:103DF00030601FFA8AFA1AEB06001030C01C8008E7
:103E00008000706070680421B0FBF1F202FB1102C7
:103E1000002AA6F808B01FFA8BFB40F2DC501FFA0C
:103E20008AFA1AF1030131F00301401A834501DADD
:103E3000584607E040F2DC501AF103014FF6FC72DD
:103E40001140401A708106F2EC507189726889182D
:103E5000884240F2DC501FFA8AFA1AF1030131F06D
:103E60000301401A01280120F081B0461FFA8BFBA4
:103E70007089BBEB00008146B9F1010F38DB0520EA
:103E800000F0C5FA0700002F04D1300000F00EF951
:103E9000002073E03D730020787300203860C8F87C
:103EA00000704FF6FF708145A7F80890484640F231
:103EB000DC5180B2884201D2484601E040F2DC5039
:103EC000788117F11000786078680421B0FBF1F276
:103ED00002FB1102002A06F2EC50718972688918FF
:103EE00088420120F8817889B9EB0009B846C3E718
:103EF0003FE01AF113004FF6FC7108401FFA8BFBEC
:103F00001BF1030131F00301081880B200F026FE16
:103F10000600002E01D1002030E01FFA8AFA1AEBC9
:103F200006001030C01C800880007060A6F808B041
:103F3000A6F80AB000203060357370680421B0FB29
:103F4000F1F202FB1102002A13E0042000F05FFAF4
:103F50000600002E01D1002010E000207060A6F8BD
:103F600008B0A6F80AB000203060357301E00020E8
:103F700004E00120F081002070733000BDE8F28F72
:103F80002DE9F04104000D00002C207B032807D010
:103F9000207B012804D0207B002801D0207B022830
:103FA0002089ADB2854230D2ADB22089281A804630
:103FB0002F0026007089BFB2B8420BD270893F1A19
:103FC0004FF6FF708045308918EB0000308136686D
:103FD000002EEFE7307B00280CD17089BFB28742FA
:103FE00008D07068801B391889B2300000F00CFDD1
:103FF0000600002E7781708930813068002802D059
:10400000306800F053F800203060BDE8F08170B4F3
:104010000200002A09B2002901D0002A01D10020A3
:1040200042E009B2002909D509B248420500508989
:10403000ADB2A84201D2012036E000E00D00107BB5
:104040000300506804009BB2002B02D09BB2032BEC
:104050000CD109B24842566880195060506812F17C
:104060001006B04219D2546001201DE09BB2022B11
:1040700002D09BB2012B0ED109B2002909D550897B
:10408000ADB2A84205D309B24842566880195060C3
:1040900003E0012008E0012006E050890818508163
:1040A000108908181081002070BC70472DE9F0417C
:1040B0000400002C02D1002C00203BE0207B0028D3
:1040C00007D0207B012804D0207B022801D0207B50
:1040D000032800200700002C2AD0E0890128E0896D
:1040E000401EE08180461FFA88F8B8F1000F1CD10D
:1040F00020680600207B0500ADB2032D04D121000D
:10410000052000F09EF90DE0ADB2012D02D0ADB258
:10411000022D04D12100042000F093F902E02000D8
:1041200000F049FC7F1C3400D5E700200400D2E7F2
:104130003800C0B2BDE8F081010000221000002963
:1041400002D0401C0968FAE7C0B27047002802D0CC
:10415000C189491CC181704710B4002801D00029D1
:1041600000D113E002001368002B05D013890C89DD
:10417000E31813811268F6E713895489A342136880
:10418000002B13890C89E3181381116010BC704750
:1041900038B504000D0029002000FFF7DDFF2800DE
:1041A000FFF7D4FF31BD2DE9F04104000D000027D9
:1041B0005FF00008002C05D0002D03D0208929894C
:1041C000884202D27FF0090052E0002C6089BFB221
:1041D000C01B69891FFA88F8B1EB0801884204DB2B
:1041E0006889B0EB0800060002E06089C01B060089
:1041F000B6B232001FFA88F8686818EB0001BFB247
:104200006068381800F08EF9F71916EB0808608915
:10421000BFB2B8426089BFB2874202D10020070016
:10422000246868891FFA88F8404568891FFA88F869
:10423000804502D3002080462D68002D09D0688972
:104240002989884205D12868002802D07FF008001B
:104250000EE0002C09D060892189884205D12068B0
:10426000002802D07FF0080002E0002DADD1002030
:10427000BDE8F0812DE9F84F04000D0016001F0085
:104280005FF0000B002C01D1002042E0002D01D195
:1042900000203EE000208146002C01D0002D01D1FD
:1042A000002036E0A046B6B2002E30D0B8F1000FA4
:1042B0002DD0BFB2002F08D0B8F80A00BFB2874295
:1042C00003D3B8F80A003F1A1EE0B8F80A00C01B72
:1042D0008246B6B21FFA8AFA564500D2B2461FFA93
:1042E0008AFA5246BFB2D8F8040039181FFA89F981
:1042F00019EB050000F016F91AEB0B0B1AEB090984
:10430000B6EB0A0600200700D8F80080CBE7584635
:1043100080B2BDE8F28F2DE9F04704000D001600D1
:10432000B1465FF0000A002C01D1002038E0002DDA
:1043300001D1002034E0002C05D0002D03D02089CD
:10434000B6B2B04202D27FF0090029E027001FFA7E
:1043500089F9B9F1000F18D0002FC84678891FFAE3
:1043600088F8404501D2788980461FFA88F842468D
:104370001FFA8AFA1AEB0501786800F0D3F8B9EB56
:10438000080918EB0A0A3F68E1E71FFA89F9B9F151
:10439000000F04D11FFA8AFAB6B2B245FFD000204E
:1043A000BDE8F08710B400231A0092B2062A01D2A9
:1043B000521CFAE72D4B9B089B00180000231A00A3
:1043C00092B2062A21D292B2294B002443F822400D
:1043D0000023190092B20FF2A80333F8123089B209
:1043E000994210D292B2224B53F82230036092B21B
:1043F0001F4B43F8220092B20FF2780333F81230C9
:104400001818491CE6E7521CDAE710BC7047010097
:10441000C9B2062901D3002012E0C9B2144850F8ED
:1044200021000200002A0AD0C9B21148136840F8DE
:1044300021300420B2FBF0F303FB1023002B10000B
:10444000704710B400290FD00423B1FBF3F404FB30
:104450001314002C0A00C0B2054B53F8203013602F
:10446000C0B2034B43F8202010BC7047B35000206B
:10447000C4C300201C002000200008001000EC0530
:104480000400060005001E000A000A0080B2010AAE
:1044900051EA002080B2704710B50400200080B2BD
:1044A000FFF7F4FF10BD10F47F41090251EA0061EB
:1044B000020A12F47F42114351EA1060704710B5AE
:1044C00004002000FFF7EFFF10BD000030B4020031
:1044D00010680300D843002801D0002B01D101202F
:1044E0001CE091F82A00800701D4002016E04868FB
:1044F000834201D1002011E010688C6820404C6894
:104500008D682C40A04208D1886833EA00008C688E
:10451000E443A04201D1012000E0002030BC7047FC
:104520000000000070B504000D00160032002900E4
:104530002000FEF7FFF8200070BD000038B5040031
:10454000CA4800680500002D10D0280000F023FCA8
:10455000002809D02068A96808406968AA68114045
:10456000884201D128000FE02D68ECE7C0480068C0
:10457000002805D0BE48006800F00DFC002801D1DD
:10458000002001E0BA48006832BD2DE9F047040080
:104590000D00606806003088FFF77EFF80B2000BD8
:1045A000C0B2042804D02000FFF780FD0020BDE049
:1045B0003088FFF771FFC0F3032081461FFA89F9A5
:1045C0005FEA89097088FFF767FF804660891FFAF4
:1045D00089F9484504D320891FFA88F8404504D258
:1045E0002000FFF763FD0020A0E0414689B22000D3
:1045F000FFF7C6FC5FF0010A2F00380000F0CBFB8C
:10460000002811D0381D00280ED0786800280BD063
:1046100030697968884206D0390016F11000FFF73A
:1046200055FF002800D00EE0BAF1000F05D00020A1
:1046300082468E480068070000E03F68AF4200D124
:104640003F68002FD9D1290016F10C00FFF73EFF7B
:1046500000280CD15FF07040FFF731FFF16810EADD
:10466000010A5FF06040FFF72AFF824504D1200075
:10467000FFF71CFD002059E0002F04D12000FFF7B8
:1046800015FD002052E0B6F806A043F6FF70FFF7D4
:10469000FDFE1AEA000F09D0200000F019FD040009
:1046A000002C01D1002041E0606806006D480560E3
:1046B0006D4806602900200000F0AEFE00282ED1D3
:1046C0003089FFF7E9FEC0B2C0B2012806D0112838
:1046D00009D12900200000F0E3FE20E0290020009D
:1046E00001F02AF91BE0290016F11000FFF7EEFE99
:1046F000002811D15FF07040FFF7E1FE316910EA48
:10470000010A5FF06040FFF7DAFE824504D0666080
:104710000221200001F0D8F92000FFF7C7FC514822
:10472000002101605048002101600020BDE8F087B1
:104730002DE9F84F06000F0090460A9C0B9DDDF80E
:104740003090B8F1000F70D05FF0140B14213000DE
:10475000FFF75DFC002802D07FF001007FE0706869
:10476000824670891428BAF80800FFF795FEC0B297
:104770009DF8001050EA012080B2FFF787FEAAF8EA
:104780000800BAF80800FFF787FEEDB280B2000A11
:1047900055EA002080B2FFF779FEAAF80800B8F1C8
:1047A000000F01D1002001E0D8F80000CAF8100085
:1047B0001FFA8BFB04209BFBF0F0E4B254EA0020CC
:1047C00050F4804080B2FFF761FEAAF80000308903
:1047D000FFF75CFEAAF802000020AAF806002548B0
:1047E0000088FFF753FEAAF8040022480088401C06
:1047F00020490880002F02D0386800280AD119F11A
:104800000400002801D1002001E0D9F80400CAF812
:104810000C0006E0002F01D1002000E03868CAF843
:104820000C000020AAF80A0004E0706882461AF121
:1048300010008046B9F8280000280AD0B9F82800EE
:104840003189884205D242464946300000F020FDB9
:1048500005E0424631004846D9F814309847BDE893
:10486000F28F00001CC4002020C4002044C400209B
:1048700048C4002076C400202DE9F04784B006002B
:104880000F00904699460C9D0D9C4046FFF756FE42
:104890008246002802D17FF003000CE0CDF808A08A
:1048A000E4B20194EDB200954B46DBB242463900CA
:1048B0003000FFF73DFF04B0BDE8F08710B4DFF82B
:1048C000C8331B689842DFF8C4331B6898420379E9
:1048D000002B038845F20104A3420388DFF8A843B4
:1048E00024681B19190088421BD00B79002B18D1A2
:1048F000DFF898331B68994213D0DFF894331B68B4
:104900008B4202D1DFF8883318600B8803800B8854
:10491000DFF8744324681B19DFF86C432468041B18
:104920005C804388DFF8604324681B191A008242C8
:1049300014D01379002B11D1DFF854331B68834254
:1049400002D1DFF84C331A60038813800388CE4C01
:1049500024681B19CC4C2468141B5C8010BC704765
:10496000CC4989088900C84A1160C749096808000C
:104970004FF4A04101800021418000210171C24912
:10498000096811F5A041C14A1160C04909680122B6
:104990000A71BE4909684FF4A0420A80BB49096800
:1049A0004FF4A0424A80BC4901220A70B849B64A75
:1049B00012680A60704738B50400002C23D014F048
:1049C00003000028B0480068844203D3AF48006861
:1049D0008442FFD3AC480068844203D3AB480068EC
:1049E000844200D30FE0B4F10800050028790028C4
:1049F00000202871A6480068854201D2A4480560BD
:104A00002800FFF75BFF31BDF0B50200C81C4FF670
:104A1000FC71014089B20C2901D20C20010045F241
:104A2000010089B2814201D3002096E096480068D7
:104A3000824203D3954800688242FFD392480068BF
:104A4000824203D391480068824201D3100084E07F
:104A5000B2F1080006008C480068301A0400308863
:104A6000A4B2001B083803009BB289B28B429BB2F0
:104A700089B28B4201D200206FE089B29BB2994289
:104A800001D1100069E03088DFF8FCC1DCF800C01B
:104A900010EB0C0007003879002837D1B7F800C0B8
:104AA000604611EB040C1CF1080C6546DFF8E0C110
:104AB000DCF800C0BC450AD1ADB2DFF8CCC1DCF8EF
:104AC00000C015EB0C0CDFF8C8E1CEF800C0ADB2A9
:104AD000DFF8B4C1DCF800C015EB0C0C67465FF0E2
:104AE000000C87F804C038807C803580B7F800C09F
:104AF000BCF5A04F30D0B7F800C0DFF88CE1DEF88D
:104B000000E01CEB0E0CACF8025025E09BB289B221
:104B100011F1140083421FD3081908300500ADB20B
:104B2000594800682818070059480068874201D290
:104B30005748076000203871308838807C80358085
:104B40003888B0F5A04F07D03888DFF83CC1DCF8D2
:104B500000C010EB0C0045801000F0BDF0B4050063
:104B6000ADB2002D01D100208BE0E81C4FF6FC75A2
:104B70000540ADB20C2D01D20C20050045F201001C
:104B8000ADB2854201D300207BE0414800683E4E33
:104B90003668801B010089B2ADB2D5F5A0408142D4
:104BA0006EDA89B2384800680818030018790028BE
:104BB00061D1188889B2401A0838ADB2A8425AD3D8
:104BC000188889B2401A0838ADB215F11406B042FF
:104BD00019D368180830020092B22B4800681018E8
:104BE0000400002020711888208061801A80012034
:104BF00018712088B0F5A04F07D02088224E366863
:104C00008019428001E00120187121480068834228
:104C10001DD11F480068007900280ED01C4800688C
:104C20001A4E3668B04208D0194800680088164EFF
:104C300036688019164E3060EBE715480068134E51
:104C40003668B04203D012480068007900280F4847
:104C50000068ADB2EE180836B04213F10800042621
:104C6000B0FBF6F707FB1607002F13F00300002830
:104C700013F1080005E089B203480068095A8AE781
:104C80000020F0BC7047000034C4002038C400206D
:104C90003CC400209F00002093C400202DE9F04771
:104CA00004000D0016001F00DDF82080DDF82490C0
:104CB000DDF828A0002060600020A0600020E060F7
:104CC000002084F82A00C4F81C802548007884F865
:104CD0002D0023480078401C21490870C4F810A01A
:104CE0003B0032002900200000F00EF82000C847E9
:104CF000002801D0002005E01A480068206019480B
:104D000004602000BDE8F087F8B504000D0016002F
:104D10001F002900200000F009F83100200000F0F9
:104D200013F83900200000F008F8F1BD002901D186
:104D3000002200E00A6842607047002901D1002289
:104D400000E00A68C2607047002901D1002200E03B
:104D50000A688260704704490860704700000000DC
:104D600094C4002044C4002048C4002010B50400AE
:104D700094F82A00C0070DD494F82A0050F00100DE
:104D800084F82A0094F82A00800603D5211D20000B
:104D9000FEF7ABFF10BD90F82A0010F0010070473D
:104DA0002DE9F84304000D000026A542002D01D096
:104DB0002868A042606840688046B8F8040000286F
:104DC00016D160680700D8F800006060142214F162
:104DD00008017868FFF7A6FB0121380000F07EFE8D
:104DE0003800FFF7A9F9801906003800FFF75EF9CF
:104DF00060680700002F0ED078688046B946D8F862
:104E0000000007004846FFF797F98019060048465A
:104E1000FFF74CF9EEE72900200000F080F8DFF8FA
:104E2000F0050088B042DFF8E8050088801BDFF855
:104E3000E01508803000BDE8F2832DE9F84F04004A
:104E40000D005FF0000A00200700002080460020CF
:104E50008346DFF8B80500680600002E21D070698F
:104E6000E168884207D1B0692169884203D1B089DD
:104E7000A188884201D0012000E0002000280AD04B
:104E80001BF1010B002F01D1370004E0F87FF17F07
:104E9000884200D337003068002800D0B04636681A
:104EA000DBE7002F06D041463800FFF779FF814647
:104EB00019EB0A0AAA4502DABBF1020FC3DA50461F
:104EC000BDE8F28F70B504000D000220FFF79FFAD5
:104ED0000600002E0DD129002000FFF7AEFFA842EA
:104EE00003DB0220FFF793FA0600002E01D1002019
:104EF00014E020220021300000F037FE0320F0777C
:104F0000DFF8080500683060DFF80005066014224D
:104F1000210016F10800FFF705FB300070BD38B521
:104F200004000D00DFF8E4040068A04204D1DFF8BB
:104F3000DC042168016002E0002D20682860210067
:104F40000220FFF77EFA31BD2DE9F04F83B0040057
:104F50000D005FF000085FF0010A68680190019899
:104F60004088FFF799FA834601980088FFF794FA82
:104F70001FFA8BFBC0F3032080B2BBEB8000ADF8BF
:104F800002000198C088FFF787FAC004C00C80B205
:104F9000C000ADF800006868060000203060BDF871
:104FA0000000B080BDF80000BDF802100818F080C5
:104FB00060688146B9F1000F30D0D9F804000700CD
:104FC000B088B988884213D2C6F80090B8F1000FB3
:104FD0000CD0B088B8F80610884203D3B888F1889E
:104FE000884200D265E0C8F8005000E0656015E036
:104FF000B088B98888425CD0B088F988884258D394
:10500000B8F1000F06D0B8F80600B988884201D080
:105010000020824638688146B846CBE7B9F1000FD8
:1050200013D1B8F1000F0DD0B088B8F8061088423F
:10503000C8F80050B8F80600B188884205D00020B2
:10504000824602E0606800286560A07FC0072ED518
:10505000BAF1000F29D0606840688088002802D02B
:105060000020824621E0B04630688146B9F1000F49
:105070000ED0D9F804000600B8F80600B1888842BE
:1050800002D00020824603E0B04630688146EDE75A
:10509000BAF1000F09D06068002860684068B0422B
:1050A00030680028F088A18B884250460EE000202E
:1050B0000CE02800FFF740F8D5490988C0B2081A6B
:1050C000D34908802800FEF7F1FF0020BDE8FE8FDD
:1050D0002DE9F84F04005FF0000A60680600308890
:1050E000FFF7DAF9C0F3032080B28000142840F003
:1050F000C980F088FFF7D0F9C004C00C80B2C000AE
:10510000ADF802007088FFF7C7F983463088FFF7D3
:10511000C3F91FFA8BFBC0F3032080B2BBEB800006
:10512000ADF800002000FFF707F88146B848008876
:105130005FFA89F919EB00000B2810DB5FFA89F997
:1051400049463000FFF779FE002807D0B0480088B4
:105150005FFA89F919EB00000B2800DB92E0AB48FD
:1051600000680700002F13D07869F168884209D1E0
:10517000B8693169884205D1B889B188884201D1BE
:10518000012000E00020002802D1BA463F68E9E78C
:10519000002F09D15FFA89F949463000FFF792FEE6
:1051A0000700002F10D16DE0F088FFF775F9C004FB
:1051B0000AD1F889FFF770F9C00405D01422310034
:1051C00017F10800FFF7AEF9914800885FFA89F9F6
:1051D00019EB00008E490880F088FFF75DF9800424
:1051E00009D4B87F50F00100B877BDF80200BDF8CF
:1051F00000100818B88321003800FFF7A5FE00282A
:105200003ED0B88B1430B8837868406800680500D9
:10521000786840680600142217F108013000FFF793
:1052200081F9B88BFFF732F970800020F080002000
:1052300070811421300000F0D5FC70817868040082
:10524000002D0ED0686880467FF013012800FEF71D
:10525000DEFE29002000FEF77FFFD8F800000500E1
:10526000EEE751463800FFF75AFE2000FEF764FFD4
:1052700067490988C0B2081A65490880200005E01E
:10528000002003E02000FEF711FF0020BDE8F28FB0
:105290002DE9F74F84B00598008DADF80600142075
:1052A000ADF80400022200210220FEF771FD040087
:1052B000002C02D15FF0FF30A4E0BDF80600608151
:1052C00020815448800880006060606806001422D5
:1052D000049841683000FFF725F9F088FFF7DCF803
:1052E00082465FEACA40C00C80461AF40050ADF80E
:1052F0000A000498008914380700BDF80600143825
:10530000082190FBF1F0ADF80800BFB2002F75D076
:10531000BDF806001438BFB2B84202DB5FF00109E5
:1053200001E05FF000095FFA89F9BDF80A005FEA61
:10533000C841C90C084382461FFA89F9B9F1000F28
:1053400001D15AF4005A1FFA89F9B9F1000F01D0BE
:10535000BB4604E0BDF8080080B25FEAC00BBDF8B0
:1053600004000090BDF804305A4692B216F11401C0
:105370000498FEF77FFF00994018ADF804005046EE
:1053800080B2FFF783F8F0801BF1140080B2FFF7C2
:105390007DF87080002070811421300000F022FC24
:1053A00070811FFA89F9B9F1000F05D017F11401C6
:1053B00089B22000FEF7E4FD002200210220FEF762
:1053C000E7FC0500002D13D021002800FEF7E0FEC9
:1053D000069A29000598059B5B6998472800FEF707
:1053E00065FEB7EB0B07BDF8080010EB08088CE76B
:1053F0002000FEF75BFE5FF0FF3003E02000FEF7C9
:1054000055FE002007B0BDE8F08F000024C4002046
:1054100078C40020EFB200202DE9F04704000D0011
:105420005FF0000A60688046B8F80800FFF734F8BB
:10543000C0B28146002007001848006806005FFAE5
:105440008AFABAF1000F24D1002E22D0307C00B2AB
:105450000FFA89F9484519D17069002816D018F15A
:105460000C0322003100B069D6F814C0E0470028D0
:105470000CD00020040001208246002F06D0F068E6
:10548000F86006480068F060044806603700F66877
:10549000D5E75046C0B2BDE8F08700004CC40020FC
:1054A0002DE9F24F84B00400606807003888FEF7E9
:1054B000F3FF2189C0F3032080B2800008308142CD
:1054C0000EDB3888FEF7E8FFC0F3032080B28000CF
:1054D00000B2414209B22000FEF799FD002803D036
:1054E0002000FEF7E3FDCEE060680290049917F11A
:1054F0001000FEF7EBFF824602980088FEF7CCFF13
:10550000804602984088FEF7C7FFADF804000020EF
:1055100005000020814600200600DFF8F403006843
:105520008346BBF1000F51D000208146BBF812002A
:10553000BDF8041088421ED15FFA8AFABAF1000F52
:1055400006D1BBF1000F0DD0DBF80000002809D018
:10555000DBF800003969884204D05FFA8AFABAF1B0
:10556000000F08D001208146002E04D19BF81000C6
:10557000400700D45E465FFA89F9B9F1000F21D0E7
:10558000BBF814001FFA88F840451BD11BF104003A
:10559000002808D0DBF80400002804D0DBF8040061
:1055A000F96888420ED1002D0BD0DBF80C00E860C2
:1055B000DFF85C030068CBF80C00DFF85403C0F898
:1055C00000B003E05D46DBF80CB0AAE7BBF1000FCA
:1055D00000D1B346BBF1000F04D10498406839698B
:1055E00088424DD17FF007012000FEF710FD002812
:1055F00003D02000FEF75AFD45E0BBF1000F15D0A7
:10560000DBF8180000280DD01FFA88F8CDF80080CC
:1056100017F10C0322005946DBF81C00DBF818C018
:10562000E04730E02000FEF741FD2CE05FFA8AFA07
:10563000BAF1000F20D15FF07040FEF740FF3969EA
:10564000084000905FF06040FEF739FF009981420A
:1056500012D03888FEF720FFC0F3032080B280000C
:1056600010F1080109B22000FEF7D1FC6068B842D1
:105670000321200000F028FA2000FEF717FD02E0C9
:105680002000FEF713FD05B0BDE8F08F38B504002B
:105690000D00A38A221D2900200000F001F832BD70
:1056A0002DE9F04182B004000D0016001F0030000B
:1056B000FEF744FF8046B8F1000F02D17FF00300EF
:1056C00008E0CDF800803B009BB2320029002000AA
:1056D00000F002F8BDE8F6812DE9F44F84B0040033
:1056E0000D001E000E9F608A00280DD1628A2100E5
:1056F000200000F06AF882464FFA8AFABAF1000FE9
:1057000002D0504640B25DE008212800FEF77FFC41
:10571000002810D0002208210120FEF739FB834623
:10572000BBF1000F02D15FF0FF304BE0290058467B
:10573000FEF72EFD00E0AB46BBF80A000828DBF8B8
:1057400004008046608AFEF7A1FEA8F80000300041
:1057500080B2FEF79BFEA8F802000020A8F8060021
:10576000002C02D02068002802D1381D81460EE0AE
:1057700020687968884209D0AB4504D05846FEF7C6
:1057800095FC002083467FF008001BE0A146BBF893
:105790000800FEF77BFEA8F8040002971120019094
:1057A000A07A0090E37A049A49465846FEF7C0FF73
:1057B0008246AB4504D05846FEF778FC002083466D
:1057C000504640B205B0BDE8F08F30B40300002071
:1057D00004004F4800680500002D07D0AB4203D1FC
:1057E000E4B2002C01200400ED68F5E7002901D1A6
:1057F000002000E00868186092B2002A1CD14FF423
:1058000080500200424800680500002D0FD047F686
:10581000FF7092B282420AD0688A92B2904204D15A
:10582000521C3B4800680500EFE7ED68EDE7002DEE
:1058300002D07FF00A0009E05A82E4B2002C04D1C1
:1058400033480068D86032480360002030BC70479D
:10585000F8B504000D001600608A002809D1628A9C
:1058600021002000FFF7B1FF40B2002801D040B274
:105870001BE0002D01D1002000E028686060A682B6
:10588000207C50F004002074214800680700002F9D
:1058900005D0BC4201D1002007E0FF68F7E71C48B3
:1058A0000068E0601A4804600020F2BD1949002930
:1058B00001D1002101E0174909684160002181827E
:1058C000017C11F0FB01017470478161C261704776
:1058D00038B504000E480068A04205D10C480068A5
:1058E000C0680B4908600EE0094800680500002DFB
:1058F00009D0E868002804D0E868A04201D1E06837
:10590000E860ED68F3E721000120FEF79AFD31BD64
:105910006CC400202045000810B50120FEF777FD7B
:105920000400002C06D020220021200000F01DF9E8
:10593000FF20E072200010BD2DE9F04F85B004007B
:105940000D00606807003888FEF7A6FDC0F303204D
:1059500000B2800081460FFA89F9D9F1000109B23D
:105960002000FEF754FB002802D12089042800D231
:10597000A0E0606800788DF80C009DF80C00082805
:1059800040F094805FF0010A5FF07040FEF797FDF1
:10599000396910EA010B5FF06040FEF790FD834526
:1059A00001D100208246290017F11000FEF78EFD7C
:1059B000002801D000208246BAF1000F03D1200058
:1059C000FEF774FB7DE02089082873D3200000F0E7
:1059D00014F9002803D02000FEF768FB71E02221B3
:1059E0002000FEF714FB00282ED0494609B2200003
:1059F000FEF70DFB002861D1002221890220FEF76D
:105A0000C7F98246BAF1000F58D0BAF80A000FFA67
:105A100089F919F10801884221005046FEF7C3FBBD
:105A200000284BD1DAF8040007000FFA89F9D9F100
:105A3000000109B25046FEF7EAFA00283ED12000E4
:105A4000FEF734FB544606E07FF021012000FEF70C
:105A5000DEFA002832D160680600F86880463869AE
:105A6000F860C7F8108000203070002070803889FE
:105A7000FEF712FD50F47F4080B2FEF707FD38813B
:105A800000207881494609B22000FEF7C0FA0028BC
:105A90000CD102950120019000200090FF230022EC
:105AA00017F10C012000FEF743FE82462000FEF7AE
:105AB000FDFA06E02000FEF7F9FA02E02000FEF70A
:105AC000F5FA05B0BDE8F08F38B504000D002A00E6
:105AD000D2B20321200000F00BF831BD38B504002C
