:020000040800F2
:10000000C82F002059440008AF350008B13500085A
:10001000B9350008C1350008C935000800000000E6
:10002000000000000000000000000000D1350008C2
:10003000D335000800000000D5350008D73500088A
:10004000894400088D440008914400089544000844
:10005000994400089D440008A1440008A5440008F4
:10006000A9440008AD440008B1440008B5440008A4
:10007000B9440008BD4400080F360008C544000814
:10008000C9440008CD440008D1440008D544000804
:1000900009380008DD440008E1440008ED37000895
:1000A000E9440008ED440008F1440008F544000864
:1000B000DF350008FD44000801450008054500083B
:1000C000094500080D4500081145000815450008C0
:1000D0001945000847370008F13600082545000893
:1000E000294500082D4500083145000800000000A2
:1000F0000000000000000000000000000000000000
:1001000000000000000000003545000839450008E7
:100110009936000841450008454500084945000852
:100120004D4500085145000855450008594500084F
:100130005D450008CD3700086545000869450008A1
:100140006D450008714500087545000879450008AF
:1001500080B5DFF8C009012101704FF40061DFF8BC
:10016000D40A00F0A6FFDFF8D00A00210170DFF802
:10017000CC0A0021017001BD80B54FF40061DFF8A9
:10018000B40A00F093FFDFF88C090078022814D13C
:10019000DFF88009032101700021DFF8A40A01F0D3
:1001A00069F8DFF8A00A0078801CDFF89C1A086064
:1001B0000121DFF88C0A01F05DF801BDDFF88C0A3F
:1001C0000078992840F0AA80DFF8700A01210170B8
:1001D000DFF8640A00780428C0F0B680DFF86C0A03
:1001E0004078DFF86C1A09780901DFF8682A895C21
:1001F000884240F0A980DFF8540AC078DFF84C1A32
:100200004978DFF8482A92785140884240F09C8033
:10021000DFF83C0A0078DFF83C1A11EB0010407858
:1002200010F0F000DFF8281A0978DFF8282A12EB1E
:1002300001114870DFF8180A0078DFF8181A11EB7E
:1002400000104078DFF8041A89780843DFF8001AB4
:100250000978DFF8002A12EB01114870DFF8F8097D
:100260000078022870D1DFF8F409007801280CD159
:10027000DFF8DC090078DFF8DC1911EB001002214F
:10028000C171DFF8D80900210170DFF8C4090078D6
:10029000DFF8C01911EB00100089002812D1DFF837
:1002A000B0090078DFF8AC1911EB00100221C17120
:1002B000DFF89C090078DFF89C1911EB00104FF66D
:1002C000FF710181DFF888090078DFF8881911EBE8
:1002D0000010407810F07F00DFF874190978DFF81B
:1002E000742912EB01114870DFF864090078401C92
:1002F000DFF85C190870DFF86809DFF8541909782D
:100300000170DFF8540901210170DFF8580900215C
:100310000170DFF854090021017015E0DFF81809B9
:100320000078DFF82819401810F8010C99280BD133
:10033000DFF8080901210170DFF810099921017027
:10034000DFF8F40801210170704730B400207AE032
:10035000521CDFF8303BB3F80D3092B29A4271D2A2
:1003600080B20923DFF8FC4B03FB0043B3F80330F2
:1003700092B2DFF8104B14EB4204B4F81140A342E0
:10038000E6D180B20923DFF8DC4B03FB00435B7945
:1003900092B2DFF8F04A141994F81148A342D7D169
:1003A00041F2110392B2DFF8DC4A14191B5D002BF5
:1003B000CED189B2DFF89C3813EB011380B2092447
:1003C000DFF8A05B04FB0054B4F803401C8189B241
:1003D000DFF8803813EB01134FF6FF745C8189B2AC
:1003E000DFF8703813EB011380B20924DFF8745B77
:1003F00004FB005464799C7089B2DFF8583813EB21
:10040000011380B20924DFF85C5B04FB00542489EB
:100410009C7189B2DFF83C3813EB011392B2DFF81C
:10042000644A121992F8112CDA7089B2DFF8242884
:1004300012EB011180B20922DFF8283B02FB0032E7
:10044000D2888A80401CDFF81C1B097880B289B2F0
:10045000884261D280B20921DFF8082B01FB00211C
:10046000B1F80120002100E0491CDFF8143A1B78A4
:1004700089B29BB29942E5D289B2DFF8D83713EB43
:1004800001139B8992B29342EED180B20922DFF828
:10049000D43A02FB0032B2F80320002A3AD189B2E2
:1004A000DFF8B02712EB01120023138189B2DFF8C5
:1004B000A42712EB011280B20923DFF8A84A03FB3C
:1004C00000435B79937089B2DFF8882712EB011241
:1004D00080B20923DFF88C4A03FB00431B89937128
:1004E00089B2DFF8702712EB01127823D37089B23A
:1004F000DFF8602712EB01120023938089B2DFF846
:10050000542712EB01110122CA71DFF85C1A012293
:100510000A7097E700221CE730BC7047F0B4002354
:1005200000240020002540F2CB210800002148E0F3
:1005300092B2DFF8384A14EB02145F25E57092B2EC
:10054000DFF8284A14EB021441F24145DBB2DFF830
:1005500034699B19EB5CA37092B2DFF8103A13EB8D
:1005600002135B8992B2DFF8044A14EB0214E489A7
:100570001B1BDFF8FC492488E318DFF8F4492488C2
:1005800093FBF4F504FB1534012C19D192B2DFF87A
:10059000DC3913EB02139B880A2493FBF4F392B229
:1005A000DFF8C84914EB0214A38092B2DFF8BC391B
:1005B00013EB02120123D371DFF8AC29012313706E
:1005C000491CDFF8B029127889B292B2914280F0CA
:1005D000F08089B20922DFF89C3902FB013292884F
:1005E000002AEDD089B20922DFF8883902FB0132F6
:1005F000B2F80130002200E0521CDFF88448247871
:1006000092B2A4B2A242DBD292B2DFF8604914EBFC
:100610000214A4899BB29C42EED192B2DFF84C390D
:1006200013EB02134FF6FF741C8141F2114389B2A0
:100630000924DFF8405904FB0154E478DFF84458FA
:1006400015EB44041B5B92B2DFF8204914EB021453
:10065000638189B20923DFF81C4903FB0143DB787E
:1006600041F25944DBB2DFF81C5815EB4305645BDB
:1006700089B20925DFF8FC6805FB0165AD886C438C
:100680004FF47A7594FBF5F441F28945DBB2DFF85B
:10069000F46716EB4306AD5B2C1989B20925DFF828
:1006A000D46805FB0165AC8089B20924DFF8C45821
:1006B00004FB0154A48880B2844234D289B2092454
:1006C000DFF8B05804FB0154A48840F28A2589B2AF
:1006D0000926DFF8A07806FB0176B688AD1B022656
:1006E00095FBF6F52C190F2594FBF5F492B2DFF883
:1006F0007C5815EB0215AC7180B20F2490FBF4F41A
:1007000092B2DFF8685815EB0215AD79AC4214DAF5
:1007100080B20F2490FBF4F492B2DFF8505815EB3E
:100720000215AC7109E080B20F2490FBF4F492B290
:10073000DFF8385815EB0215AC7189B20924DFF8DF
:10074000345804FB0154E4884FF4FA656C43DFF835
:1007500028582D68B4FBF5F441F2B945DBB2DFF857
:10076000246716EB4306AD5B2C1989B20925DFF827
:10077000046805FB01652D892D192DB2002D01D5C9
:100780000025FFE792B2DFF8E44714EB0214A580DE
:10079000DFF8E847B4F80F4040F6C415AC427FF4E8
:1007A000C7AE92B2DFF8C44714EB02147825E570A7
:1007B000C5E6F0BC704700204BE0C0B20101DFF895
:1007C0009424431C8B54C0B2DFF8881411EB001141
:1007D0000022CA71C0B2DFF87C1411EB00110022B4
:1007E0008A70C0B2DFF86C1411EB00117822CA7065
:1007F000C0B2DFF8601411EB001100228A80C0B291
:10080000DFF8501411EB001150228A71C0B2DFF8EA
:10081000441411EB001100224A70C0B2DFF8341406
:1008200011EB0011DFF858271288C0B282188A81B4
:10083000C0B2DFF8201411EB00114FF6FF720A81ED
:10084000C0B2DFF8101411EB00114FF6FF724A81AD
:10085000401CDFF830170978C0B28842ADD370472A
:10086000002010E0C0B2DFF8EC1311EB00114FF6DE
:10087000FF720A81C0B2DFF8DC1311EB00114FF6F2
:10088000FF724A81401CDFF8FC160978C0B288422A
:10089000E8D370470021DFF8F006DFF8F026128871
:1008A000028000200EE0C0B2DFF8A82312EB001295
:1008B000DFF8BC361B88591ADFF8CC361B8859186C
:1008C000D181401CDFF8B8150978C0B2884212D235
:1008D000C0B20100DFF8B026128889B29142E2D29C
:1008E000C0B2DFF8702312EB0012DFF89C361B88D1
:1008F000591AD181E5E7002011E0C0B2D54911EBCA
:100900000011C979012909D1C0B2D24911EB0011F6
:100910000222CA71DFF8501601220A70401CDFF86B
:1009200060150978C0B28842E7D3002014E0C0B255
:10093000C84911EB00118988C0B2C64A12EB0012F7
:100940009180C0B2C34911EB00110122CA71DFF8D6
:10095000181601220A70401CDFF824150978C0B26D
:10096000884240D2C0B2BB4911EB00114989C0B2E4
:10097000B84A12EB0012D289891ADFF8F4251288DE
:100980005118DFF8EC25128891FBF2F302FB1311EA
:100990000129E0D1C0B2AF4911EB0011C97900299A
:1009A000D9D1C0B2AB4911EB001149894FF6FF72A2
:1009B0009142D0D0C0B2A74911EB001189880A2218
:1009C00091FBF2F1C0B2A34A12EB00129180C0B2C7
:1009D000A04911EB0011898840F2D1729142A6D34F
:1009E0004FF4FA61A8E7002042E0C0B2994A12EB46
:1009F0000012128989B2914239D2C0B2954A12EBE3
:100A00000012128989B2521A642A30DAC0B2914AAD
:100A100012EB00129288C0B28E4B13EB00131B89AD
:100A200089B2591A42F210735943DFF84C351B68EA
:100A3000B1FBF3F18918C0B2864A12EB0012918023
:100A4000C0B2844911EB001189880A2291FBF2F1AE
:100A5000C0B2804A12EB00129180C0B27D4911EB06
:100A600000110122CA71DFF8001501220A70401C32
:100A7000DFF80C140978C0B2884248D2DFF8FC14C1
:100A8000B1F80F1040F6C412914209D1C0B27149B9
:100A900011EB0011C9896422514301F22C1107E0C6
:100AA000C0B26C4911EB0011C98964225143C831AD
:100AB000DFF8BC24128864235A4389B28A4206DADA
:100AC00089B2DFF8AC241288642303FB1211C0B290
:100AD000604A12EB0012128989B28A4285D1C0B2F3
:100AE0005C4911EB001189880A2291FBF2F1C0B236
:100AF000584A12EB00129180C0B2564911EB001116
:100B00000122CA71DFF8601401220A70AFE7704752
:100B100000000000B927002000B583B0002104E0E8
:100B2000C9B200AA00238B54491CC9B20829F7D3C3
:100B300085218DF80010C0B20101464A895C8DF80C
:100B40000110C0B2434911EB00118978002905D189
:100B50009DF8011051F040018DF80110C0B23D49DF
:100B600011EB0011C9788DF80210C0B2394911EBB0
:100B70000011898880290FD3C0B2364911EB0011CA
:100B8000097911F07F018DF803109DF8051051F0DF
:100B900001018DF8051006E0C0B22E4911EB0011DD
:100BA00089888DF80310C0B22A4911EB00108079B2
:100BB0008DF80400DFF8D80300788DF80600DFF820
:100BC000D0030078401CDFF8C81308709DF80600B9
:100BD000802806D300208DF80600DFF8B40300213A
:100BE0000170012108E09DF80700C9B200AA8A5CE3
:100BF00050408DF80700491CC9B20729F3D30021E2
:100C000007E0C9B2DFF88C03C9B200AA8A5C0A54B3
:100C1000491CC9B20829F4D30A4808210170DFF839
:100C2000780302210170FFF7A7FADFF8700314219F
:100C3000017007BD00080140B8270020BB27002035
:100C400044000240B727002048000240402700200F
:100C5000BD2700208C23002028000020B42700207E
:100C6000BE270020C0270020BF27002000B583B08A
:100C7000002004E0C0B200A900224254401CC0B2CF
:100C80000828F7D38A208DF800007D4800780728CF
:100C900027D30020C0B207284DD2C0B2B34911EB10
:100CA0000011C97902291AD19DF801100122824050
:100CB00011438DF80110C0B2AC4911EB00110022B4
:100CC000CA71C0B2A94911EB00114FF6FF720A8137
:100CD000C0B2A64911EB00114FF6FF724A81401CC9
:100CE000D8E7002022E0C0B2A04911EB0011C97979
:100CF00002291AD19DF801100122824011438DF87A
:100D00000110C0B2994911EB00110022CA71C0B2A2
:100D1000964911EB00114FF6FF720A81C0B2934958
:100D200011EB00114FF6FF724A81401C54490978BB
:100D3000C0B28842D7D35249097807291ED38B49BC
:100D400091F87710022919D19DF8051051F0010191
:100D50008DF80510C0B2854911EB00110022CA714F
:100D6000C0B2824911EB00114FF6FF720A81C0B286
:100D70007E4911EB00104FF6FF7141814048007829
:100D8000092829D3082024E0C0B2784911EB0011CA
:100D9000C97902291CD19DF802100122B0F1080383
:100DA0009A4011438DF80210C0B2704911EB001146
:100DB0000022CA71C0B26D4911EB00114FF6FF72EB
:100DC0000A81C0B2694911EB00114FF6FF724A81E6
:100DD000401CC0B20F28D7D329480078102818D358
:100DE000624890F8F700022813D19DF8050050F0F2
:100DF00002008DF805005D48002180F8F7105B487F
:100E00004FF6FF71A0F8F81058484FF6FF71A0F8A0
:100E1000FA105F4800788DF806005D480078401CA5
:100E20005B4908709DF80600802805D300208DF8E6
:100E30000600574800210170012008E09DF80710C6
:100E4000C0B200AA825C51408DF80710401CC0B2AD
:100E50000728F3D3002006E0C0B24E49C0B200AA72
:100E6000825C4254401CC0B20828F5D34C4808218B
:100E70000170494802210170FFF77EF907BD0000AB
:100E8000B62700202C00002080B5464800780128B5
:100E900004D066D3032853D026D362E042484349A6
:100EA0000978017004E040480078401C3E49087011
:100EB0003D4800783349097888420FD23A48007893
:100EC0002A4911EB0010C0790128ECD1364800788E
:100ED000FFF722FE33480221017042E0FFF7C6FE11
:100EE0003048032101703CE02C480078002826D1CE
:100EF0002F480078002805D12D480078401C2C4947
:100F0000087019E028480078184911EB0010407863
:100F100050F0800024490978144A12EB01114870FE
:100F200021480078401C2049087020481E49097853
:100F300001701F48002101701A480121017010E062
:100F40001A480021017008480078002808D0154888
:100F50000121017004480021017015480021017031
:100F6000FFE701BD68250020BC2700208C2300205E
:100F7000A62700208C24002074270020182700209A
:100F8000A8270020B62700209E270020240000204C
:100F9000BA2700202C270020B9270020BF270020D7
:100FA000B727002028000020BD270020BE270020F2
:100FB000C0270020F0B400220026002400250023D2
:100FC000002791F803C01CF00F0C624691F803C093
:100FD0005FEACC6C01D58B781A430B781B0621D0C5
:100FE0000368002406E0CD78482D02D10125A540F4
:100FF0000561641C082C14D20125A5400E882E40E2
:10100000AE42F6D1A5000F2616FA05F7BB4312FA39
:1010100005F52B43CD78282DE5D10125A540456167
:10102000E7E703600B884FF48074A34226D343683C
:10103000002420E0012514F10806B5400E882E405A
:10104000AE4217D1A5000F2616FA05F7BB4312FAD8
:1010500005F52B43CD78282D04D1012514F1080680
:10106000B5404561CD78482D04D1012514F108061D
:10107000B5400561641C082CDCD34360F0BC7047AC
:101080000022806880B2084201D0012200E00022E4
:101090001000C0B270470022C06880B2084201D080
:1010A000012200E000221000C0B2704789B2016145
:1010B000704789B24161704770B400220024002358
:1010C0000025194E36683300C0F30346350086B25A
:1010D000320010F44016B6F5401F08D133F07063AB
:1010E000114C246834F070640F4D2C600FE0C40282
:1010F00005D50324AC40A34353F0706307E0440DCF
:10110000E4B2240112FA04F4A34353F07063C9B2A9
:10111000002905D0400DC0B2000112FA00F00343CF
:101120000148036070BC70470400014001684FF63D
:10113000FE72114001600021016000214160002128
:1011400081600021C1606849884206D16748006813
:1011500050F00F00654908606CE06549884206D18F
:101160006248006850F0F0006049086062E0614940
:10117000884206D15D48006850F470605B490860A1
:1011800058E05D49884206D15848006850F47040E4
:10119000564908604EE05949884206D153480068D4
:1011A00050F470205149086044E05549884206D106
:1011B0004E48006850F470004C4908603AE05149CC
:1011C000884206D14948006850F07060474908607D
:1011D00030E04D49884206D14C48006850F00F007D
:1011E0004A49086026E04A49884206D147480068D3
:1011F00050F0F000454908601CE04649884206D19D
:101200004248006850F470604049086012E042496A
:10121000884206D13D48006850F470403B49086060
:1012200008E03E49884205D13848006850F47020F3
:1012300036490860704710B4002203681A00384B22
:101240001A408B680C6A23430C6923434C6923437F
:101250008C692343CC6923434C6A23438C6A234320
:101260001A430260CA6842600A6882604968C160C5
:1012700010BC7047C9B2002904D0016851F00101C7
:10128000016004E001684FF6FE7211400160704792
:10129000D2B2002A03D002681143016003E0026861
:1012A00032EA01010160704789B2416070474068CD
:1012B00080B27047C10002D51449086001E00B49B3
:1012C0000860704700210022C30002D515490A6852
:1012D00001E015490A68024201D0012100E0002125
:1012E0000800C0B27047000008000240040002403D
:1012F0001C000240300002404400024058000240FE
:101300006C000240800002400804024004040240D5
:101310001C040240300402404404024058040240CD
:101320000F80FFFF000402400000024040B200288E
:1013300009D540B210F00F00DFF8802580180901B0
:1013400000F8041C04E040B2DFF874250901815460
:10135000704780B5B0F1807F01D3012013E0000217
:10136000000A401EDFF85C1508600F215FF0FF30B7
:10137000FFF7DCFFDFF8500500210160DFF84C05C6
:1013800007210160002002BD00B585B04FF4164072
:1013900000900020ADF804000020ADF80600002009
:1013A000ADF808000020ADF80C000C20ADF80A00E4
:1013B00000A9DFF81C0500F005FB00228021DFF802
:1013C000100500F082FB01224021DFF8040500F047
:1013D0007CFB012240F22441DFF8F40400F04CFBD6
:1013E0000121DFF8EC0400F039FB4FF416400090C7
:1013F0000020ADF804000020ADF806000020ADF894
:1014000008000020ADF80C000C20ADF80A0000A97F
:10141000DFF8C00400F0D6FA01228021DFF8B4041E
:1014200000F053FB01224021DFF8A80400F04DFB3F
:10143000012240F22441DFF89C0400F01DFB012151
:10144000DFF8900400F00AFB05B000BD00B58BB0DA
:10145000DFF88404FFF76AFEDFF880040090DFF80D
:10146000800401900020029032200390002004901C
:101470008020059000200690002007900020089012
:101480004FF44050099000200A9000A9DFF848046A
:10149000FFF7D1FE0121DFF84004FFF7EBFEDFF894
:1014A0004404FFF743FEDFF840040090DFF83C04FB
:1014B00001901020029014200390002004908020BE
:1014C00005900020069000200790002008904FF41F
:1014D0004050099000200A9000A9DFF80804FFF7A7
:1014E000AAFE4FF40050FFF7E5FE0021DFF8F403F9
:1014F000FFF7C0FE01220221DFF8E803FFF7C8FE74
:10150000DFF8EC03FFF712FEDFF8DC030090DFF8F2
:10151000E403019000200290142003900020049026
:101520008020059000200690002007900020089061
:101530004FF44050099000200A9000A9DFF8B00352
:10154000FFF779FE0121DFF8A803FFF793FE0BB048
:1015500000BD00B587B0DFF8A00300F01DFB00A8B8
:1015600000F02DFC00208DF8060001208DF807000A
:1015700000208DF8080000208DF8090000208DF86B
:101580000A0001208DF80B0000208DF802000020D9
:101590008DF803000C208DF8040001208DF8050063
:1015A0001220ADF8000000A9DFF84C0300F00EFB9C
:1015B00000208DF8160000208DF8170001208DF80E
:1015C00018000020ADF80C000820ADF80E00002037
:1015D000ADF810004FF4FF60ADF812000020ADF838
:1015E000140001208DF8190003A800F077FB0122F8
:1015F0000221DFF8040300F007FC07B000BD00B5CE
:1016000085B000F073FD0121DFF8F00200F0E0FE8C
:101610000121BB4800F0BCFE012144F27D0000F036
:10162000C7FE00F079F900F017F8FFF7ADFEFFF7FD
:101630000DFFFFF78EFF00A800F024FE00984FF486
:101640007A71B0FBF1F0FFF784FE02215FF0FF300A
:10165000FFF76CFE05B000BD80B50420ADF80000BA
:1016600003208DF8020018208DF8030000A9A5487A
:10167000FFF7A0FC0620ADF8000003208DF8020063
:1016800018208DF8030000A99F48FFF793FC43F64C
:101690002010ADF8000003208DF8020018208DF80E
:1016A000030000A99948FFF785FC01215FF0201095
:1016B000FFF702FD0B20ADF8000003208DF80200BB
:1016C00004208DF8030000A98E48FFF773FC4FF447
:1016D0008060ADF8000003208DF8020004208DF832
:1016E000030000A98948FFF765FC0820ADF8000059
:1016F00003208DF8020004208DF8030000A9824821
:10170000FFF758FC4FF4F850ADF8000003208DF8B7
:10171000020004208DF8030000A97D48FFF74AFC71
:101720004FF48070ADF8000003208DF802001820FF
:101730008DF8030000A97348FFF73CFC0420ADF8C6
:10174000000010208DF8030003208DF8020000A98E
:101750007048FFF72FFC04216E48FFF7AAFC4FF4F6
:101760008060ADF8000018208DF8030003208DF88C
:10177000020000A96448FFF71DFC4FF40060ADF8BB
:10178000000004208DF8030000A95F48FFF712FC59
:101790004FF40070ADF8000018208DF8030003200E
:1017A0008DF8020000A95748FFF704FC4FF4806051
:1017B000ADF8000004208DF8030000A95148FFF7A0
:1017C000F9FB9020ADF8000010208DF803000320F5
:1017D0008DF8020000A94E48FFF7ECFB4FF40060C3
:1017E000ADF8000010208DF8030003208DF80200F2
:1017F00000A94448FFF7DEFBC020ADF8000004203C
:101800008DF8030003208DF8020000A93F48FFF780
:10181000D1FBF020ADF8000004208DF80300032078
:101820008DF8020000A93748FFF7C4FB0320ADF88C
:10183000000004208DF8030003208DF8020000A9A9
:101840003248FFF7B7FB1020ADF8000004208DF8F8
:10185000030003208DF8020000A92B48FFF7AAFB24
:101860008020ADF8000004208DF8030003208DF8DF
:10187000020000A92748FFF79DFB0120ADF80000FA
:1018800048208DF8030003208DF8020000A92048AD
:10189000FFF790FB0220ADF8000018208DF8030040
:1018A00003208DF8020000A91948FFF783FB0121EE
:1018B0005FF4EB10FFF700FC01BD000018ED00E045
:1018C00000E400E014E000E018E000E010E000E0D8
:1018D000004C00400038014030040240044C0040FD
:1018E0004426002044000240043801402C270020F8
:1018F00058000240402700200064004001001A1AEE
:1019000003C001000008014000100140000C01402C
:10191000001401400018014080B500215FF0006014
:1019200000F0C4FD4FF4A06000F088FD3D208DF86C
:10193000000002208DF8010000208DF80200012037
:101940008DF8030000A800F07EFD34208DF8000023
:1019500000208DF8010001208DF8020001208DF893
:10196000030000A800F06FFD25208DF80000002086
:101970008DF8010001208DF8020001208DF8030090
:1019800000A800F060FD0E208DF8000000208DF80A
:10199000010001208DF8020001208DF8030000A84D
:1019A00000F051FD14208DF8000000208DF801009A
:1019B00001208DF8020001208DF8030000A800F03E
:1019C00042FD01BDF0B585B004000D0000200021EE
:1019D000002200230026AF89002F2600208A4CF623
:1019E000FF710840E98808432082A0894EF6F31170
:1019F0000840A9882A8911436A8911430843A081B4
:101A0000A08A4FF6FF410840A9890843A08200A898
:101A100000F038FC1048864201D1039900E0029999
:101A2000192000FB01F029688900B0FBF1F2642065
:101A3000B2FBF0F000010109642303FB112319013B
:101A400032316422B1FBF2F111F00F010843208121
:101A500005B0F0BD0000000000380140C9B2002907
:101A600004D0818951F40051818104E081894DF6CF
:101A7000FF72114081817047F0B4002300240025DB
:101A8000002640F66A1789B2B94206000800C0B2C3
:101A90004309DBB289B211F01F04012010FA04F5EA
:101AA000012B01D10C3604E0022B01D1103600E0ED
:101AB0001436D2B2002A03D030682843306002E0E6
:101AC0003068A8433060F0BC7047D2B2002A03D01F
:101AD000828A1143818203E0828A32EA0101818293
:101AE0007047C905C90D8180704700224FF400730B
:101AF00089B299420088084201D0012200E0002208
:101B00001000C0B2704789B28A0589B2C94301800A
:101B1000704770B4002300240025002240F66A16A6
:101B200089B2B1420A00D2B25509EDB289B211F0C0
:101B30001F04012212FA04F4012D02D182891440FB
:101B400006E0022D02D1028A144001E0828A14408C
:101B500089B20B0A9BB2012111FA03F300880340FA
:101B6000002C03D0002B01D0012200E00022100045
:101B7000C0B270BC704710B40022002340F66A1453
:101B800089B2A14289B20A0A012111FA02F39BB279
:101B9000D943018010BC704780B5944988420AD16E
:101BA00001215FF0007000F023FC00215FF0007065
:101BB00000F01EFC09E001215FF0806000F018FCDD
:101BC00000215FF0806000F013FC01BD10B4002222
:101BD0000023046834F002040460046854F0010433
:101BE000046000E05B1C4268D20703D44FF6FF722A
:101BF0009342F7D14268D20701D400226AE08A7981
:101C0000012A04D1026852F08002026003E00268F7
:101C100032F080020260CA79012A04D1026852F0CF
:101C20004002026003E0026832F0400202600A7A79
:101C3000012A04D1026852F02002026003E0026827
:101C400032F0200202604A7A012A04D1026852F07E
:101C50001002026003E0026832F0100202608A7A29
:101C6000012A04D1026852F00802026003E002680F
:101C700032F008020260CA7A012A04D1026852F0E6
:101C80000402026003E0026832F0040202608A7813
:101C9000CB781B0653EA82720B7952EA03424B79E6
:101CA00052EA03520988491E1143C161016849087B
:101CB00049000160002300E05B1C4168C90703D5AF
:101CC0004FF6FF718B42F7D14068C00701D5002263
:101CD00000E001221000C0B210BC704710B4002117
:101CE0000122837A9A401100414A126852F001029F
:101CF0003F4B1A603F4A12688A433E4B1A60027B90
:101D0000002A15D13C4A12688A433B4B1A60C288AC
:101D1000438853EA0242837A384C44F83320827A6B
:101D2000364B13EBC2028388048854EA03435360A2
:101D3000027B012A15D1304A12680A432E4B1A60E1
:101D40000288438853EA0242837A2C4C44F83320B9
:101D5000827A2A4B13EBC2028388C48854EA034375
:101D60005360C27A002A05D1254A12688A43244B5F
:101D70001A6004E0224A12680A43214B1A60028961
:101D8000002A04D11F4A12688A431E4B1A60028936
:101D9000012A04D11B4A12680A431A4B1A60407B7D
:101DA000012804D11348006808431249086010480C
:101DB0000068400840000E49086010BC70470021D0
:101DC00081710021C1710021017200214172002145
:101DD00081720021C172002181700021C170032134
:101DE00001710221417101210180704700640040AE
:101DF000006600401C6600400C66004040660040E3
:101E00000466004014660040D2B2002A03D0426942
:101E10001143416103E0426932EA010141617047C7
:101E200030B4002283685B0101D500220AE0826899
:101E3000120101D5012205E08268D20001D50222FB
:101E400000E00422D2B2042A75D0D2B210EB021301
:101E5000D3F8803113F00103D2B210EB0214C4F8AE
:101E600080310B7A002B0FD1D2B210EB0213D3F8D2
:101E700080310C684D7A55EA44542343D2B210EBBA
:101E80000214C4F8803110E0D2B210EB0213D3F880
:101E900080314C680D7A55EAC4044D7A2C432343B3
:101EA000D2B210EB0214C4F880318B7A13F00F0316
:101EB0008B72D2B210EB0213D3F884311B091B01D1
:101EC000D2B210EB0214C4F88431D2B210EB021378
:101ED000D3F884318C7A2343D2B210EB0214C4F8C5
:101EE00084318B7B4C7B240454EA03630C7B53EAE0
:101EF0000423CC7A2343D2B210EB0214C4F8883105
:101F00008B7C4C7C240454EA03630C7C53EA04234A
:101F1000C97B1943D2B210EB0213C3F88C11D2B2B1
:101F200010EB0211D1F8801151F00101D2B210EB87
:101F30000210C0F880111000C0B230BC7047C9B2A6
:101F4000002903D002290BD005D30EE0816851F09F
:101F50008001816009E0816851F40041816004E002
:101F6000816851F400018160FFE77047C9B2002920
:101F700002D12021C16001E020210161704780B5BC
:101F8000C9B210EB0113D3F8B03113F0040313728C
:101F9000137A002B07D1C9B210EB0113D3F8B0317B
:101FA0005B0D136006E0C9B210EB0113D3F8B0313A
:101FB000DB085360C9B210EB0113D3F8B03113F052
:101FC00002035372C9B210EB0113D3F8B43113F00A
:101FD0000F039372C9B210EB0113D3F8B4311B0A8B
:101FE000D374C9B210EB0113D3F8B831D372C9B2AC
:101FF00010EB0113D3F8B8311B0A1373C9B210EBFD
:102000000113D3F8B8311B0C5373C9B210EB011391
:10201000D3F8B8311B0E9373C9B210EB0113D3F888
:10202000BC31D373C9B210EB0113D3F8BC311B0A16
:102030001374C9B210EB0113D3F8BC311B0C5374E9
:10204000C9B210EB0113D3F8BC311B0E9374C9B2A3
:10205000FFF78CFF01BD042926D0052919D00629D8
:102060001AD007291CD0082921D0202922D04029A4
:1020700023D0B1F5807F23D0B1F5007F25D0B1F515
:10208000806F27D0B1F5803F29D0B1F5003F29D02E
:102090002BE00121816028E04FF48071816024E011
:1020A0005FF48031816020E00821C1601DE01021D3
:1020B000C1601AE00821016117E01021016114E0FC
:1020C00081694908490081610FE0816931F00201AD
:1020D00081610AE0816931F00401816105E0082134
:1020E000416002E010214160FFE7704780B55C4825
:1020F000006850F001005A4908605A4800685A497F
:1021000008405849086056480068584908405449F2
:1021100008605348006830F48020514908605148F5
:10212000006830F4FE004F4908604D48006830F008
:10213000A0504B4908604E485FF47F0101604D4854
:102140000021016000F001F801BD80B500F001F848
:1021500001BD82B00020019000200090404800683E
:1021600050F480303E4908603D48006810F400306B
:1021700000900198401C01900098002803D101981C
:10218000B0F5A06FF0D136480068800302D5012079
:10219000009001E000200090009801285FD13648AF
:1021A000006850F010003449086033480068800827
:1021B0008000314908603048006850F002002E4924
:1021C00008602848274909680160264825490968A8
:1021D00001602448006850F4806022490860254866
:1021E00000682649084023490860224800682449BD
:1021F0000843204908601A48006850F08060184978
:102200000860174800680001FBD51648006830F4E4
:102210007C10144908601348006850F4E810114914
:1022200008600F48006850F080700D4908600C4845
:1022300000688001FBD50B480068800880000949D0
:1022400008600848006850F0020006490860054828
:10225000006810F00C000828F9D102B07047FEE7C2
:1022600000100240041002400000FFF0FFFFF6FEE5
:10227000081002402C1002400020024000F0FEFF37
:1022800044060100F0B500250021002700260022A9
:10229000002300245FF0000CDFF874E1DEF800E0BA
:1022A0001EF00C0E7546002D04D0042D05D0082D0F
:1022B00006D041E05849016040E0584901603DE0E6
:1022C0005349096811F47011514A126812F48037A9
:1022D000890C0D2901D0891C00E00621002F03D1B3
:1022E0004F4A5143016026E04A4A126812F4803294
:1022F000484B1B6813F00F035B1C002A06D1474AAA
:10230000B2FBF3F201FB02F1016014E0414A1268F2
:10231000C2F30312541C3F4A1268C2F3032212F1A3
:10232000020C3E4AB2FBF4F20CFB02F2B2FBF3F2F7
:1023300001FB02F1016001E037490160344909689D
:1023400011F0F0052D0937496E5C0168F1404160DC
:102350002F49096811F4E0652D0A32496E5C416825
:10236000F14081602A49096811F46055ED0A2D4950
:102370006E5C4168F140C1602549096811F440452F
:10238000AD0B29496E5CC168B1FBF6F10161F0BD8E
:10239000C9B2002905D025490968084323490860C6
:1023A00005E02249096831EA0000204908607047C9
:1023B000C9B2002905D01E49096808431C490860B4
:1023C00005E01B49096831EA0000194908607047B7
:1023D000C9B2002905D017490968084315490860A2
:1023E00005E01449096831EA0000124908607047A5
:1023F000C9B2002905D01049096808430E49086090
:1024000005E00D49096831EA00000B490860704792
:10241000041002402C10024000127A0040787D0126
:1024200000093D00000000201C00002014100240A4
:10243000181002401C100240101002401E490843B0
:102440001E490860704710B4002100220F23C47891
:10245000002C1ED01949096811F4E061D1F5E06142
:10246000090AD1F10402CB404178914082781A40A8
:10247000114309010278124BD15401784911114AD4
:102480000123007810F01F0013FA00F042F8210039
:102490000AE0017849110C4A0123007810F01F006E
:1024A00013FA00F042F8210010BC7047074A1140AF
:1024B00008430749086070470000FA050CED00E08A
:1024C00000E400E000E100E080E100E080FFFF1FA9
:1024D00008ED00E00020DFF8D8150800DFF8D4157B
:1024E00001600021C18081803221418170470FB598
:1024F0000020DFF8BC150800C188491C428991FB07
:10250000F2F302FB13118288914210D0C188491C5A
:10251000428991FBF2F302FB1311C180C1880E22A4
:10252000006802FB010000A90E2200F0FFFA0FBDB7
:102530000FB585B09DF817009DF8161011F00F012A
:1025400050EA01209DF8151050EA01309DF8141052
:1025500011F0030150EA01509DF8181011F07F01AD
:1025600050EA8150019004208DF8080000208DF879
:1025700009009DF819008DF80A009DF80A200DF158
:102580001A010DF10B0000F009FB00A9DFF8280586
:10259000FFF746FC09B000BD7FB504000D00002622
:1025A0008DF80220DFF8140500788DF803008DF80F
:1025B0000430EDB2092D13D200208DF80000002068
:1025C0008DF801008DF805509DF8052021000DF1D2
:1025D000060000F0E3FA00A80FC8FFF788FF4AE002
:1025E00001208DF8000000208DF8010008208DF8F2
:1025F00005009DF8052021000DF1060000F0CEFA3F
:1026000000A80FC8FFF773FF083617E002208DF807
:1026100000009DF80100401C8DF8010008208DF895
:1026200005009DF80520F6B231190DF1060000F005
:10263000B5FA00A80FC8FFF75AFF0836F6B216F130
:102640000800EDB2A842E1DB03208DF800009DF800
:102650000100401C8DF80100A81B8DF805009DF8B5
:102660000520F6B231190DF1060000F097FA00A826
:102670000FC8FFF73CFF7FBD30B585B0DFF83044B1
:10268000002100250020A288E3889A4218D0A5885E
:10269000ADB2681C618990FBF1F201FB1205ADB28D
:1026A0000E20216800FB051100A80E2200F03EFA62
:1026B00000A80FC8FFF73CFFC0B2042800D0A580D7
:1026C00005B030BD70B504000D001600F6B2002E46
:1026D0000BD0022E21D014D39BE0A068000704D5B4
:1026E0003100C9B22000FFF72AFCA0684001F4D5F0
:1026F00016E0A068000504D53100C9B22000FFF73C
:102700001EFCA0680001F4D50AE0A068000304D50F
:102710003100C9B22000FFF712FCA068C000F4D558
:10272000F6B2042E75D0F6B214EB0610D0F8800184
:1027300010F00100F6B214EB0611C1F88001287AFE
:1027400000280FD1F6B214EB0610D0F880012968EA
:102750006A7A52EA41510843F6B214EB0611C1F805
:10276000800110E0F6B214EB0610D0F88001696821
:102770002A7A52EAC1016A7A11430843F6B214EB8D
:102780000611C1F88001A87A10F00F00A872F6B205
:1027900014EB0610D0F8840100090001F6B214EB26
:1027A0000611C1F88401F6B214EB0610D0F88401CA
:1027B000A97A0843F6B214EB0611C1F88401A87B8C
:1027C000697B090451EA0060297B50EA0120E97A1B
:1027D0000843F6B214EB0611C1F88801A87C697CA5
:1027E000090451EA0060297C50EA0120E97B084392
:1027F000F6B214EB0611C1F88C01F6B214EB061018
:10280000D0F8800150F00100F6B214EB0611C1F8C7
:10281000800170BD1FB586B00C9C9DF81B009DF813
:102820001A1011F00F0150EA01209DF8191050EA1A
:1028300001309DF8181011F0030150EA0150019089
:1028400004208DF8080000208DF809009DF81D0077
:102850008DF80A009DF80A200DF11E010DF10B0004
:1028600000F09CF92200D2B200A99348FFF72AFF9A
:102870000AB010BD00B585B09149497A904A927A64
:1028800051EA02218F4A12880F328F4B1B889A42DD
:1028900003DB8D4A1288002A00D137E080B200287D
:1028A0001BD141F2013289B2914216D100208DF83C
:1028B000040000208DF8050000208DF806007F48F8
:1028C00000788DF8070000208DF8090000200090A6
:1028D00001A80FC8FFF79EFF18E080B2012815D1AC
:1028E00000208DF8040000208DF8050001208DF8EF
:1028F0000600724800788DF8070000208DF8090066
:102900000020009001A80FC8FFF784FF05B000BDAC
:102910000FB400B583B00598000D10F003008DF8DA
:1029200000000598000B8DF801000598000A10F0D2
:102930000F008DF802009DF80200002840F0A580ED
:102940009DF8000000281AD19DF81A200DF11B01F6
:102950005B4800F023F99DF81A005C4908800020CC
:10296000FFF788FF594802885549594800F016F981
:10297000584856490988018000F02BFA95E09DF8E7
:102980000000012812D19DF81A200DF11B014C48BE
:1029900000F004F95048012101709DF801004F49F1
:1029A00008709DF81A004E4908807EE09DF80000EE
:1029B000022829D148480078012876D19DF80100E5
:1029C00046490978491C88426FD1454800889DF8DE
:1029D0001A100818B0F5FA6F67DC9DF81A200DF18F
:1029E0001B013F480088364BC01800F0D7F83B4821
:1029F0000078401C39490870394800889DF81A1041
:102A000008183749088050E09DF8000003284CD191
:102A100031480078012848D19DF801002F490978F4
:102A2000491C884241D12E4800889DF81A10081888
:102A3000B0F5FA6F39DC9DF81A200DF11B0128481A
:102A400000881F4BC01800F0A9F8254800889DF8A1
:102A50001A1008181D4908800020FFF70BFF1B48BB
:102A6000028817491A4800F099F81A481749098846
:102A7000018000F0AEF918480021017017480021CC
:102A800001701748002101800FE09DF80200012825
:102A90000BD19DF81A200DF11B01124800F07EF8B1
:102AA0000120FFF7E7FE00F023FB07BC5DF814FBF5
:102AB00054270020D020002000640040B5270020CB
:102AC00018150020A8270020A627002098270020FE
:102AD000E81C0020AA270020AD270020AE270020F8
:102AE0009A2700204426002000B585B0012101234B
:102AF0000422C9B200A8FFF74FFD05B000BD10B415
:102B000050F8041B81B102681218001D50F8043BF4
:102B1000DC0744BFA9F10104E31852F8044B43F861
:102B2000044B091FF9D1EBE710BC70474AB38B0780
:102B300007D0521E11F8013B00F8013B21D08B0752
:102B4000F7D183071ED1103A07D330B4B1E838105B
:102B5000103AA0E83810F9D230BC530724BFB1E8CE
:102B60000810A0E8081044BF51F8043B40F8043BAB
:102B7000D20724BF31F8022B20F8022B44BF0B7878
:102B800003707047083A07D3B1E80810083A40F8D4
:102B9000043B40F804CBF7D25307E4E710B5040038
:102BA0002000FFF7C3FF200010BD50F8041B61B1E7
:102BB00050F8042BD30744BFA9F101039A1800234E
:102BC00042F8043B091FFAD1EFE7704710B5002027
:102BD000DFF8B4140978002900F0B5808021DFF80F
:102BE000A404FEF763FADFF8A40455210170DFF8AE
:102BF0009C0455214170DFF89404DFF8941409888F
:102C00008170DFF88804DFF88814098889B2090A1E
:102C1000C170DFF87804DFF87C1409780171DFF8FF
:102C200078040088DFF8701400220A80DFF86C1442
:102C300009780843DFF854144871DFF8501480B263
:102C4000000A8871DFF858040078012816D10024A2
:102C5000DFF840040078E4B2844226D2E4B2DFF820
:102C6000440410EB0410407850F01000E4B2DFF898
:102C7000341411EB04114870641CE9E700240EE0E1
:102C8000E4B2DFF8200410EB0410407810F0EF00FD
:102C9000E4B2DFF8101411EB04114870641CDFF883
:102CA000F4030078E4B28442EAD300240BE0E4B2F7
:102CB000DFF8F00310EB04104078E4B2DFF8CC1337
:102CC0006118C871641CDFF8CC030078E4B2844258
:102CD000EDD30020002405E0E4B2DFF8B013615C1E
:102CE0000818641CE4B2DFF8AC130978C91D8C42E3
:102CF000F2DBDFF8A0130978DFF890238918C87198
:102D0000002410E0E4B2DFF88403215C89B2DFF82C
:102D10009803FEF7E6FE4021DFF88C03FEF7E5FEA0
:102D20000028F8D0641CE4B2DFF8680300780830AB
:102D30008442E7DBDFF85003002101708021DFF8D7
:102D40004403FEF7B6F910BD00B585B0010000A838
:102D50001122FFF7EBFE002000E0401CDFF83413E7
:102D60000978C0B2884232D2C0B2DFF8381311EB12
:102D700000118989BDF80B209142EED1DFF83013A4
:102D800001220A70C0B2DFF81C1311EB00119DF88C
:102D90000E20CA70C0B2C34911EB00119DF80D207E
:102DA0008A70C0B2BF4911EB0011BDF80F208A71C3
:102DB000C0B2BC4911EB001100228A80C0B2B949EF
:102DC00011EB00100121C171BA480121017005B059
:102DD00000BD2DE9F84F5FF0000A00245FF0000B02
:102DE000002500275FF000085FF000090026B248C8
:102DF0000188B24800F00CFA002800F03581DFF8B5
:102E0000BCB2BBF809004FF48951401A10D0401EE3
:102E100032D00F3800F02081801E36D0401E00F0E6
:102E20001F81801E0AD04FF4E671401A64D01BE166
:102E3000994800210180FDF713FD15E1A0489F4945
:102E40001122FFF773FE9E48B0F80B009D490880E1
:102E50009C4800888E490988401A112803DB8D4858
:102E60001021017007E09748008889490988401AB5
:102E7000401C88490870F7E0934890490C22FFF7FE
:102E800055FE8B4800210170EEE08C4890F80BB0A5
:102E9000BBF10100C0B218282DD2002025E080B27D
:102EA0000721864A01FB002101F20C010A78182A49
:102EB0001AD241F259420B78844C14EB4303B1F817
:102EC0000140D45241F289420B78804C14EB430309
:102ED000B1F80340D45241F2B9420B787B4C14EB69
:102EE0004303B1F80510D152401C5946C9B280B213
:102EF00089B28842D3D3B7E0DBF80200744909688D
:102F0000884200F0A8807248006810F1010F0CD0D0
:102F1000DBF802006E490968491C884205D05E480A
:102F2000008850F480605C490880DBF80200684942
:102F3000086000240B25ADB260482E580A2000FB23
:102F400006F0644908600427BFB2ADB25B48281898
:102F5000385C614908706048007819280ED25E48D4
:102F60000078092101FB00F2BFB2ADB25348281826
:102F70003818411C5948FFF711FE00E0012456485B
:102F800000780921484310F101081FFA88F8BFB200
:102F9000ADB24A482818381818F80000504908708F
:102FA0004F480078192812D24D480078092101FBBA
:102FB00000F21FFA88F8BFB2ADB24048281838189E
:102FC00018EB0000411C4748FFF7E8FD00E0012432
:102FD000434800780921484310F101095FF0000AD5
:102FE0000AE041F211001FFA8AFA38491AEB01018E
:102FF000002242541AF1010A1FFA8AFABAF5806FC8
:10300000EFD3E4B2002C1DD1ADB2BFB278191FFAD4
:1030100088F818EB00001FFA89F919EB0000BBF8DB
:10302000061088420EDA1FFA89F91FFA88F8BFB233
:10303000ADB222482818381818EB000019EB000030
:1030400000F03CFA19480068401C18490860FDF778
:103050007CF9FDF763FA07E0234800F004F903E088
:103060001648FFF771FEFFE7134800210180BDE815
:10307000F18F80B580210348FEF71BF81B48002123
:10308000017001BD00140140B02700207826002007
:10309000A8270020B6270020A0270020B527002061
:1030A000AF2700208C230020004C004094270020F4
:1030B000B4270020BC270020AA270020E81C0020FD
:1030C00018270020A6270020602700202C000020C1
:1030D00020000020742700208C2400208D24002054
:1030E0006825002069250020F31C0020C12700204E
:1030F00038B5002400253B480F21018004213A48BF
:10310000FDF7D7FF39480078C0B240083849087049
:103110003648B0F80100040036480088A4B2844262
:1031200006D334480088201A401C3349088008E040
:10313000324800882F490988401A2018401C2E491F
:1031400008802F48006810F1010F2AD02A48008813
:103150002B490968884205D327480088284909680F
:10316000451A07E02548008825490968401A224980
:1031700009880D182348C07A012812D1002D30D0BB
:10318000022D06D12048008850F480501E49088046
:1031900007E0032D05D31C48008850F400601A494D
:1031A00008801748144909880160114800780028F0
:1031B00006D01448C07A012802D1144805210170B4
:1031C0001048C07A012801D1FDF764FB0A48008845
:1031D000022806D10B48C07A012802D10B480521EC
:1031E000017031BDA22700200018014044260020B4
:1031F000AF270020A827002024000020A6270020B9
:103200001800002060270020A0270020B127002000
:1032100010B4002200230478AA2C02D14278AA2AF2
:1032200001D000201DE08279C37952EA032289B2DD
:103230008A4201D0002014E0437A012204E092B2D5
:103240001418647A6340521C92B289B2B1F1090435
:10325000A242F4DB007ADBB2834201D0002000E01E
:10326000012010BC7047F0B40178002940F0AA801A
:10327000817809024278114302791202C3781A4315
:1032800089B292B25318B3F5806F00F31581DFF85D
:10329000FC32B3F80D3089B292B25418A34204DA6A
:1032A0005318DFF8E842A4F80D30002346E0A4B23A
:1032B000DFF8DC5215EB04152D894FF6FF76B54289
:1032C00033D0A4B2DFF8C85215EB04152D8989B2AA
:1032D0009BB25E18DFF8B47217EB4606B6F81160C1
:1032E000B54222D1A4B2DFF8A85215EB0415AD788F
:1032F00089B29BB25E18DFF89472F61996F81168DD
:10330000B54212D141F2110589B29BB25E18DFF8C5
:103310007C72F619AD5D012D07D1A4B2DFF87052B1
:1033200015EB04154FF6FF762E81641CDFF864520E
:103330002D78A4B2ADB2AC42B9D35B1C9BB292B2B1
:10334000934280F0B9809BB2052404FB0304A47966
:1033500024029BB2052505FB03056D792C4389B238
:103360009BB25D18DFF8246216EB4505A5F8114005
:1033700089B29BB25C18DFF8145264199BB2052520
:1033800005FB0305ED7984F8115889B29BB25C18EE
:10339000DFF8F85164199BB2052505FB03052D7A6A
:1033A00084F8115C41F2110489B29BB25D18DFF818
:1033B000DC61AD199BB2052606FB0306767A6655DD
:1033C0000024B3E78178090242781143027912029E
:1033D000C3781A4389B292B25318192B6CDA0023BE
:1033E00066E09BB2092404FB0304A47924029BB287
:1033F000092505FB03056D792C4341F2114589B27E
:103400009BB25E18DFF8847117EB4606AC5341F2AD
:10341000414489B29BB25D18DFF87061AD199BB26F
:10342000092606FB0306F679665541F2594489B22E
:103430009BB25D18DFF8546116EB45059BB2092677
:1034400006FB0306367A9BB2092707FB03077F7A40
:1034500056EA0726665341F2894489B29BB25D1849
:10346000DFF8286116EB45059BB2092606FB03062B
:10347000B67A9BB2092707FB0307FF7A56EA0726AD
:10348000665341F2B94489B29BB25D18DFF8FC6023
:1034900016EB45059BB2092606FB0306367B9BB25D
:1034A000092707FB03077F7B56EA072666535B1C49
:1034B0009BB292B2934294D3F0BC704778B4017837
:1034C000427851EA022189B201295DD3002243E00A
:1034D0009BB2DFF8BC4014EB031424894FF6FF7550
:1034E000AC4230D09BB2DFF8A84014EB031424891F
:1034F000BDF80050DFF8946016EB4505B5F81150A3
:10350000AC4220D19BB2DFF8884014EB0314A478BE
:10351000BDF80050DFF87460AD1995F81158AC4251
:1035200011D141F21104BDF80050DFF86060AD190F
:10353000645D012C07D19BB2DFF8544014EB0314F7
:103540004FF6FF7525815B1CDFF8484024789BB25D
:10355000A4B2A342BCD3521C92B289B28A4213D203
:1035600000AB92B210EB4204A41C25781D70657864
:103570005D7041F21103BDF80040DFF8105064198E
:1035800001251D550023DFE771BC70472C0000208A
:103590008C230020B6270020A648006810F4E060C5
:1035A000A5490843A3490860BFF34F8FFEE7704762
:1035B00080B5FFF7F1FF01BD80B5FFF7EDFF01BD5D
:1035C00080B5FFF7E9FF01BD80B5FFF7E5FF01BD5D
:1035D00070477047704780B500F0F8F901BD10B52D
:1035E00001215FF0804000F069FA00280ED004212C
:1035F0009248FDF750FD040091480088401C904916
:10360000088001215FF0804000F06FFA10BD80B5A6
:103610004FF40050FDF756FE00280DD04FF4005037
:10362000FDF748FE00218748FDF724FE8648007814
:10363000032801D1FCF78CFD01BD80B50020834932
:103640000978052927D182490978AA2903D1804917
:103650004978AA2900D01EE07D4989787D4A1278F0
:10366000914218D17A49C978B02914D1002104E0D7
:10367000C9B2774A8A5C1018491CC9B20429F7D329
:1036800073490979C0B2814205D15521202000F04B
:1036900031FAFFF781FF01BD10B540F224416E48B9
:1036A000FEF737FA002822D06B4804886B48008860
:1036B000040040F224416848FEF75DFA6848FDF7CF
:1036C000F6FD0400D4F1320060490870FFF7B5FF41
:1036D00064480121017000216148FDF7CBFD3221D2
:1036E0005F48FDF7E1FD01215D48FDF7C3FD10BD19
:1036F00010B540F224415C48FEF70BFA002821D0B7
:103700005948048859480088040040F2244156482A
:10371000FEF731FA5648FDF7CAFD04004FF47A70FF
:10372000001B54490880FFF754FB00215048FDF767
:10373000A1FD4FF47A714E48FDF7B6FD01214C48CA
:10374000FDF798FD10BD10B540F224414A48FEF740
:10375000E0F9002824D03C480078012835D14648BB
:10376000048846480088040040F224414248FEF79D
:1037700002FA4348FDF79BFD0400D4F114004149CF
:10378000087000213E48FDF775FDFCF717FD142178
:103790003B48FDF789FD01213948FDF76BFD14E039
:1037A00040F226613448FEF7B4F900280DD02648CF
:1037B0000078032809D1002240F226612E48FEF746
:1037C0005BF940212C48FEF79EF910BD80B501E061
:1037D00000F0A0F900F0A6F90028F9D1402000F08F
:1037E000B8F95FF4803000F0B4F901BD80B5402035
:1037F00000F0BAF9002806D023482449096801607E
:10380000402000F0C3F901BD00B587B001AA002136
:103810001F48FEF7B4FB02211D48FEF71CFC01A95E
:1038200084B068461422FFF78EF90FBCFFF770F8DA
:1038300007B000BD0CED00E00400FA0500180140DF
:103840009C27002044000240B9270020C127002007
:1038500044260020B3270020004C0040044C0040C8
:1038600030040240B22700200044004004440040DD
:103870006C000240AA2700200038014004380140B3
:1038800058000240B8270020782700208027002019
:103890000064004080B57548008801280DD1734848
:1038A00000210180FFF720F971480078002804D03A
:1038B0006F480078401E6E49087001BD38B500247D
:1038C000002548E010216B48FDF7DAFB002801D005
:1038D00054F0010420216748FDF7D2FB002801D0F5
:1038E00054F0020440216348FDF7CAFB002801D0D0
:1038F00054F0040480215F48FDF7C2FB002801D08A
:1039000054F0080410215C48FDF7BAFB002801D0F0
:1039100054F0100401215948FDF7B2FB002801D0F2
:1039200054F0200402215548FDF7AAFB002801D0DD
:1039300054F0400480215248FDF7A2FB002801D03A
:1039400054F080044F480078E4B2A04202D04D48C1
:10395000047000256D1CEDB2142DB3D349480078D6
:10396000C0434849087048484649097801704648AC
:10397000007800010F384549088045481021017042
:1039800031BD80B5FDF73BFE80214248FDF791FB3C
:10399000FFF794FF404800210170FCF70CFF3F48FF
:1039A0000021C17200F0FAF8FEF794FDFFF70EF95E
:1039B000FFF770FF3A480078012804D13848002109
:1039C0000170FFF756FBFEF757FEEFE780B535486D
:1039D0000068401C3349086033480088012803D13F
:1039E00004212748FDF762FB2F480088002804D0F7
:1039F0002D480088401E2C4908802848C07A01289C
:103A000006D12A480078012802D1294801210170F5
:103A100026480078002804D024480078401E234916
:103A200008702448008800280FD022480088401ED3
:103A3000204908801F480088002806D11D484FF4FF
:103A40007A710180094801210180FDF71DFA1A48A9
:103A50000078002804D018480078401E16490870E5
:103A600000F0A7F800F00EF901BD0000A427002027
:103A7000AC2700200008014000100140000C01406C
:103A800000180140B3270020B5270020A8270020F8
:103A9000B627002000140140C12700206027002025
:103AA000B22700207C270020A2270020B127002079
:103AB000B027002026000020BF27002030B40022BD
:103AC00000230024058A0D402B0080890840040053
:103AD0009BB2002B04D0A4B2002C01D0012200E044
:103AE00000221000C0B230BC704789B2C9430182C5
:103AF0007047000081B000220092054A0092009AAF
:103B000080B280180090009889B2016001B07047BF
:103B1000006C004080B5024800F090F901BD000043
:103B2000AC26002080B50020DFF830100968096855
:103B3000DFF82C2011404FF44072914204D1DFF89D
:103B40001C00006800F001F802BD0068C0F30D40E1
:103B50007047DFF8101008607047000090270020C1
:103B6000008300801490024000210022094B1B6852
:103B700003401A00084B1B68034203D0002A01D0FF
:103B8000012100E000210800C0B27047024908602E
:103B90007047000000040140140401408E480021D9
:103BA00001718D480021A0F805108B48002141804B
:103BB000704780B580218948FDF762FA8849097805
:103BC000C0B2814205D086494988002901D1844983
:103BD000487083494978C0B2814227D180484078F3
:103BE0007F490978884221D07D484088401C7C4923
:103BF00048807B48408804281FD37948407878491A
:103C0000087077480021418075480078012806D166
:103C10007348012141717248012101710DE0704822
:103C20000021C1806E480021417106E06C486C495A
:103C3000097841706A48002141806948007801286C
:103C40000ED16748C088401C6549C8806448C08858
:103C500041F28831884203D3614841F28831C18002
:103C60005F48007901280CD15D48002101715A4854
:103C70000079002802D158480121017156480021DD
:103C8000018001BD10B584B040215448FDF7F8F91A
:103C900000A90022002300241CC10C3900214E4A37
:103CA0005288521C4C4B5A804B4AB2F80520002ACD
:103CB00007D04948B0F80500401E4749A1F8050063
:103CC00088E04749097AC0B2814205D04449498910
:103CD000002901D1424948724149497AC0B2814222
:103CE00021D13F48407A3E49097A88421BD03C485E
:103CF0004089401C3A49488139484089042819D3F1
:103D000037483749497A01723548002141813448A2
:103D1000007A012803D13248012101730AE03048BA
:103D20000021C18106E02E482D49097A41722C48B4
:103D3000002141812A48007A01280ED12848C089F3
:103D4000401C2749C8812648C08941F288318842F1
:103D500003D3234841F28831C1812148007B0128E7
:103D600038D11F48002101731B48B0F80500002816
:103D700030D11948008840F2D17188422AD21648C1
:103D80000079012826D114480088401C1249088077
:103D9000114800888DF800000F48008880B2000AA2
:103DA0008DF801000C4840888DF802000A484088D0
:103DB00080B2000A8DF803000748002141800421E9
:103DC00005486422A0F8052001230B22C9B200A8EF
:103DD000FEF7E2FB1FBD00006C270020000C014035
:103DE00000270020FEB50026002400A800F040F8BF
:103DF0000099019F032289B2032000F083F8040098
:103E0000002C0BD0250007E06A89F1196868FEF7DD
:103E1000C5FE688986192D68002DF5D102985FF0DE
:103E20000041016034480068000605D53248802111
:103E300001603248002101602000FEBD38B5040059
:103E40002000FFF7CFFF0500002D02D15FF0FF300B
:103E50000DE02100280022699047040064B2002C84
:103E600003D0280000F024F90025200040B232BD24
:103E70003EB4002100AA00230024002538C20C3AD9
:103E80001F4A12681268002A11D5002100911A49B0
:103E90000968090605D5184980220A6017490022D9
:103EA0000A6000A91CC91CC00C390C3822E0144956
:103EB0000968096811F403414FF4407291420AD134
:103EC0000F4909680968C1F30D41091F0C4A1268BE
:103ED0009268019200E0002100910949096802916D
:103EE00007490968C968064A116000A91CC91CC0B5
:103EF0000C390C383EBC70471490024008900240C8
:103F000090270020F8B50E0014000027C0B200284A
:103F100005D0022805D003D3032817D017E01437A3
:103F200014370E37E4B2002C00F08A80022C00F027
:103F3000AD80C0F0AB80032C40F0B880082000F0CA
:103F4000F3F80500002D04D1002078E0EAE7002016
:103F500075E02C7300202860BFB278191030C01CA7
:103F600080088000686068680421B0FBF1F202FB01
:103F70001102002A2E81B6B240F2DC50BFB2F91C09
:103F800031F00301401A864201DA300006E040F2C7
:103F9000DC50F91C4FF6FC721140401A688105F2A2
:103FA000EC5069896A688918884240F2DC50BFB2D7
:103FB000F91C31F00301401A01280120E8812F008B
:103FC000B6B26889361A17E040F2DC51418110F12F
:103FD0001001416041680422B1FBF2F303FB1213AC
:103FE000002B05F2EC516A896B68D21891420121CD
:103FF000C1814189761A0700012E1BDB082000F0E1
:1040000093F8002804D1280000F052F8002016E0B0
:104010000473002141730021016038604FF6FF7185
:104020008E420681310040F2DC5289B29142CBD2FD
:104030003100CBE70120E881002068732800F2BD41
:1040400017F113004FF6FC710840B6B2F11C31F0C5
:104050000301081880B200F002F90500002D01D11B
:104060000020ECE7BFB278191030C01C8008800037
:1040700068602E816E81002028602C73686804219E
:10408000B0FBF1F202FB1102002AD3E7072000F097
:104090004BF80500002D01D10020D0E7002068601A
:1040A0002E816E81002028602C73C3E70020C6E7B4
:1040B00038B5002802D10028002033E0017B002918
:1040C00007D0017B012904D0017B022901D0017BAB
:1040D0000329002503E000F09DF86D1C2000002856
:1040E0001ED0C1890129C189491EC18189B2002917
:1040F00014D10468017B89B2032904D1010008208E
:1041000000F02AF8E9E789B2012902D089B2022930
:10411000E1D10100072000F01FF8DEE70020DEE714
:104120002800C0B232BD0000C0B2092801D300206F
:1041300011E0C0B2124951F8201000290AD0C0B2D3
:104140000F4A0B6842F820300420B1FBF0F202FB6A
:104150001012002A0800704700290ED00422B1FB7B
:10416000F2F303FB1213002BC0B2054A52F82020D1
:104170000A60C0B2024A42F82010704700000000F6
:10418000DC260020DFF8F81109688842DFF8F41116
:104190000968884201790029018845F201029142AB
:1041A0000188DFF8DC2112688918884218D00A7962
:1041B000002A15D1DFF8CC211268914210D0DFF827
:1041C000C82112688A4201D16F4A10600A880280B1
:1041D00009886B4A12688918694A1268821A4A80EB
:1041E0004188674A12688918814212D00A79002AE8
:1041F0000FD1654A1268824201D1634A1160028878
:104200000A8000885E4A126880185D4A1268891A1E
:104210004180704780B5002820D010F003010029AC
:1042200057490968884203D3564909688842FFD331
:1042300053490968884203D352490968884200D328
:104240000CE0083801790029002101714E49096804
:10425000884201D24C490860FFF794FF01BD30B499
:1042600080B2002801D1002086E0C01C4FF6FC710E
:10427000084080B20C2800D20C2045F2010180B227
:10428000884201D3002077E03F4909683C4A126820
:10429000891A03E089B23A4A1268895A89B280B20F
:1042A000D0F5A042914266DA89B2354A12688A187E
:1042B0001379002BEED1138889B25B1A083B80B2C8
:1042C0008342E7D3138889B25B1A083B80B210F1AE
:1042D0001404A34217D3431808339BB2284C246814
:1042E0001C19002525711588258061801380012106
:1042F00011712188B1F5A04F07D02188204C246886
:1043000009194B8001E0012111711F4909688A4296
:104310001DD107E01C4909680988194B1B68C91899
:10432000194B1960184909680979002905D01649FF
:104330000968144B1B689942ECD113490968114B69
:104340001B68994203D010490968097900290D4971
:10435000096880B280180830814212F108000421F7
:10436000B0FBF1F303FB1103002B12F00300002854
:1043700012F1080000E0002030BC7047000000008F
:1043800084270020882700208C27002080B500F09B
:1043900015F802000023DB431068984204D0110096
:1043A0000220ABBE002010605068984204D0111D5E
:1043B0000220ABBE0020506001BD000000487047E5
:1043C0001000002010B5084979441C31074C7C448A
:1043D0001A34A14206D0081D0A68511888470146C0
:1043E000A142F8D110BD00BF080000002800000065
:1043F000BBE7FFFF982700002C0000200000000012
:10440000FFE6FFFF2C000000740100000000002008
:104410000000000000F009F8002801D0FFF7D2FFEB
:104420000020FFF7AEFA00F002F80120704780B5D7
:1044300000F002B800BF00000746384600F002F85E
:10444000FBE7000080B5FFF7A1FF024A110018202A
:10445000ABBEFBE726000200C046C046C046C046D1
:10446000FFF7D8FFFFF7A3B8FFF7A2B8FFF7A4B88C
:10447000FFF7A6B8FFF7A8B8FFF7AAB8FFF7A9B8E3
:10448000FFF7A8B8FFF7A7B8FFF7FEBFFFF7FEBF1B
:10449000FFF7FEBFFFF7FEBFFFF7FEBFFFF7FEBF50
:1044A000FFF7FEBFFFF7FEBFFFF7FEBFFFF7FEBF40
:1044B000FFF7FEBFFFF7FEBFFFF7FEBFFFF7FEBF30
:1044C000FFF7A5B8FFF7FEBFFFF7FEBFFFF7FEBF80
:1044D000FFF7FEBFFFF7FEBFFFF796B9FFF7FEBF7E
:1044E000FFF7FEBFFFF782B9FFF7FEBFFFF7FEBF82
:1044F000FFF7FEBFFFF7FEBFFFF771B8FFF7FEBF84
:10450000FFF7FEBFFFF7FEBFFFF7FEBFFFF7FEBFDF
:10451000FFF7FEBFFFF7FEBFFFF7FEBFFFF713B9C0
:10452000FFF7E6B8FFF7FEBFFFF7FEBFFFF7FEBFDE
:10453000FFF7FEBFFFF7FEBFFFF7FEBFFFF7ACB808
:10454000FFF7FEBFFFF7FEBFFFF7FEBFFFF7FEBF9F
:10455000FFF7FEBFFFF7FEBFFFF7FEBFFFF7FEBF8F
:10456000FFF734B9FFF7FEBFFFF7FEBFFFF7FEBF4F
:10457000FFF7FEBFFFF7FEBFFFF7FEBF0000000022
:10458000010203040102030406070809FFFFFFFFFD
:10459000FFFFFFFFFFFFFFFF02040608FFFFFFFF13
:0845A0000100E8030300000024
:040000050800445952
:00000001FF
